:100000000C9462000C94DC080C94B5080C948A00E3
:100010000C948A000C94F2050C948A000C94380518
:100020000C948A000C948A000C948A000C948A0028
:100030000C948A000C9411050C948A000C948A008C
:100040000C946B080C948A000C9429090C940309F5
:100050000C948A000C948A000C948A000C948A00F8
:100060000C945B090C948A00000000002400270017
:100070002A0000000000250028002B0000000000DE
:1000800023002600290004040404040404040202DA
:100090000202020203030303030301020408102007
:1000A0004080010204081020010204081020000012
:1000B0000008000201000003040700000000000027
:1000C0000000F60A11241FBECFEFD8E0DEBFCDBF7F
:1000D00011E0A0E0B1E0ECE5FBE102C005900D927B
:1000E000AA32B107D9F723E0AAE2B1E001C01D921C
:1000F000AD3AB207E1F710E0C2E6D0E004C02197C4
:10010000FE010E94A10DC136D107C9F70E943D0B27
:100110000C94AC0D0C9400008091920190E0209121
:100120009301821B91090895089580E090E008955D
:1001300080918E0190918F01019690938F01809311
:100140008E010895CF93DF93CB01EA01642F0E94C3
:10015000890ACE01DF91CF910895CF93DF931F924B
:10016000CDB7DEB7698361E0CE0101960E94890AAE
:1001700081E090E00F90DF91CF91089580919401FC
:1001800081119AC080918901813041F442E050E0B0
:1001900064E771E089E991E00E94A2008091890101
:1001A000833009F48EC080918901873009F489C0B9
:1001B00080918901883309F484C080918901883055
:1001C00009F488C080918901843109F483C0809149
:1001D00089018E3141F449E050E064E771E089E93A
:1001E00091E00E94A20080918901883241F449E0A7
:1001F00050E06FE571E089E991E00E94A2008091F2
:100200008901853151F448E050E064E771E089E903
:1002100091E00E94A20010927401809189018831BE
:1002200041F442E050E064E771E089E991E00E9426
:10023000A200809189018A3071F445E050E064E7C2
:1002400071E089E991E00E94A20010925E01109293
:100250005D011092890180918901863051F443E05B
:1002600050E064E771E089E991E00E94A2001092F9
:100270008901809189018B3071F443E050E06AE597
:1002800071E089E991E00E94A20010925B01109256
:100290005A0110928901809189018C3021F543E047
:1002A00050E067E571E089E991E00E94A2001092B8
:1002B000570110928901089567E189E991E00C9452
:1002C000AD0043E050E064E771E089E991E00E940D
:1002D000A20073CF44E050E064E771E089E991E067
:1002E0000E94A20074CF08950F931F93CF93DF93C2
:1002F0008091940181112FC001E010E08091920162
:1003000020919301821719F190E0821B91090497C3
:1003100061F41092560110925501109254011092FE
:1003200053011093520100935101C0915301D09198
:100330005401CE010196909354018093530189E9B1
:1003400091E00E94C107C757DE4F8883D7CF81E075
:10035000809394010BC09091920180919301981722
:1003600029F089E991E00E94C107F5CFDF91CF9193
:100370001F910F910895CF93DF9382E00E94D707DA
:10038000EC0183E00E94D7078C239D23019719F489
:1003900081E080933A01DF91CF9108950F931F93ED
:1003A000CF93DF9380915301909154010497D9F436
:1003B0008091550190915601892BA9F481E090E03C
:1003C000909356018093550180918901813009F005
:1003D00097C0809189018093740180918A010E9465
:1003E000D707809375018091490190914A01892B2B
:1003F00059F180917802813039F52091770280910E
:10040000410190914201213049F4019689319105D1
:1004100054F0109242011092410109C0019797FFD8
:1004200002C088E190E09093420180934101809165
:10043000890180935A0181E080935B0180914101A1
:1004400080935C0110927802809143019091440165
:10045000892B09F4E1C22FB7F8948091950190910E
:100460009601A0919701B09198012FBF409145014D
:10047000509146016091470170914801841B950B92
:10048000A60BB70B813D9740A105B10508F4C4C286
:1004900080918E0190918F014EE1489F9001499F7C
:1004A000300D112481E080935701C90169E470E0A7
:1004B0000E94380DCB0160E071E00E94380D8093FE
:1004C0005801C90160E079E40E94380D6093590138
:1004D00010928F0110928E012FB7F89480919501A0
:1004E00090919601A0919701B09198012FBF8093B0
:1004F000450190934601A0934701B09348018CC2F7
:1005000080918901823029F460918B0180918A0168
:1005100042C080918901833051F580918A018E30EB
:1005200008F08E508770806480937C0080917A0000
:10053000806480937A0080917A0086FDFCCF809160
:1005400078002091790090E0922B209189012093EE
:1005500074019C0197FF02C021503F4F30937501F9
:1005600060E071E00E94380D809376013CCF80916D
:100570008901843009F05CC0D0918B010D2F10E00F
:10058000C0918A0161E08C2F0E942F08011511058E
:1005900029F460E08C2F0E94000825CF0F3F110541
:1005A00009F444C0EC2FF0E0E255FF4FE491E33052
:1005B000F9F048F4E130B9F0E230A1F584B5806299
:1005C00084BDD8BD10CFE730E9F0E83019F1E43050
:1005D00049F58091800080628093800010938B00A9
:1005E00000938A0000CF84B5806884BDD7BDFBCE60
:1005F0008091800080688093800010938900009330
:100600008800F1CE8091B00080688093B000D093D4
:10061000B300E9CE8091B00080628093B000D093A7
:10062000B400E1CE003811050CF4B3CF61E0B2CFD5
:1006300080918901853039F460918B0180918A0124
:100640000E942F08D0CE80918901873009F076C0B2
:10065000D0918A0161E08D2F0E942F08C0918B01FB
:1006600060E08C2F0E942F0860E08D2F0E94000810
:1006700083E090E00197F1F761E08D2F0E94000880
:1006800083E290E00197F1F760E08D2F0E9400086F
:100690008C2F90E0FC01E656FF4F6491FC01EA5775
:1006A000FF4FE491F0E0EE0FFF1FE458FF4F8591FC
:1006B000949100E412E42FE030E0462F0E94B10A4A
:1006C000611571058105910539F0DC01CB010196B9
:1006D000A11DB11DBF7003C080E090E0DC018093DC
:1006E0004B0190934C01A0934D01B0934E0160914A
:1006F0004B0170914C0180914D0190914E010E94EF
:100700003D0C26E933E44BE05DE30E94A30C20E0BE
:1007100030E040E05FE30E94A30C0E94070C2091B0
:1007200089012093740120E031E040E050E00E9414
:100730004C0D209375016093760155CE809189010F
:10074000883061F4809189018093740182E0809304
:100750007501109276011092770145CE8091890142
:10076000883209F440CE80918901823309F43BCE6E
:1007700080918901833309F436CE809189018433D5
:1007800009F431CE80918901853309F42CCE809112
:100790008901863309F427CE80918901873309F4D2
:1007A00022CE80918901883309F41DCE8091890180
:1007B000863409F418CE80918901873409F413CE68
:1007C00080918901883409F40ECE809189018934A1
:1007D00009F409CE809189018A3409F404CE80910C
:1007E00089018B3409F4FFCD809189018C3409F49F
:1007F000FACD809189018D3409F4F5CD809189017C
:100800008E3409F4F0CD809189018F3409F4EBCD59
:10081000809189018A3509F4E6CD809189018B3573
:1008200009F4E1CD809189018C3509F4DCCD80910A
:1008300089018D3509F4D7CD809189018E3509F470
:10084000D2CD809189018F3509F4CDCD8091890178
:100850008E3009F4C8CD809189018F3009F4C3CD61
:1008600080918901893009F4BECD8091890186305B
:1008700009F4B9CD809189018A3009F4B4CD809111
:1008800089018031C9F5109280008093810021E0B8
:1008900020933D018FB780933E01F89480E49FE15F
:1008A00090933C0180933B01909387008093860056
:1008B00080913E018FBF80918100887F809381006D
:1008C0009091810080913D01982B909381004BEB9A
:1008D00051E05093400140933F0120936F0090916D
:1008E0008100892B80938100789481E090E090933F
:1008F0004A018093490174C080918901813151F48A
:1009000080916F008E7F80936F0010924A01109249
:10091000490169CD80918901823109F047C0C091B8
:100920008A01C0930101C23021F0C33021F08FEF62
:1009300003C080E001C081E060E00E942F08C23067
:1009400019F0C330A9F45CC080E0E82FF0E0EE0FAE
:10095000FF1FEE5FFE4F28E930E0318320838130B6
:1009600009F450C080916900836080936900E89A1F
:1009700010928F0110928E012FB7F89480919501FB
:1009800090919601A0919701B09198012FBF80930B
:10099000450190934601A0934701B093480181E03F
:1009A00090E090934401809343011AC080918901A3
:1009B0008D30C9F4109244011092430180910101DD
:1009C000823019F0833061F424C0E898E0E0F0E070
:1009D000EE0FFF1FEE5FFE4F8AE996E09183808362
:1009E0001092890100CD80918901863109F4FBCCF8
:1009F00080918901853109F4F6CC80918901F3CC8D
:100A000081E0A3CF809169008C6080936900E99AAE
:100A1000AFCFE998E1E0DBCFDF91CF911F910F914C
:100A200008951F920F920FB60F9211242F933F93A8
:100A30004F935F936F937F938F939F93AF93BF93E6
:100A4000EF93FF93E0913F01F09140010995FF91F1
:100A5000EF91BF91AF919F918F917F916F915F9136
:100A60004F913F912F910F900FBE0F901F901895AF
:100A70001F920F920FB60F9211242F933F934F9313
:100A80005F936F937F938F939F93AF93BF93EF93F6
:100A9000FF938091A6010E94D7072091AA0130916F
:100AA000AB012F5F3F4F3093AB012093AA01909190
:100AB000A901953618F096E09093A5019091A501B3
:100AC0009430C9F128F4923069F09330D1F05EC0CF
:100AD000953009F451C0963009F058C091E09093D8
:100AE000760251C0811152C02091AA013091AB0110
:100AF0002436310508F442C0109276021092A90102
:100B00001CC0813009F042C0E091A90191E09E0F24
:100B10009093A901F0E02091AA013091AB01EE0F72
:100B2000FF1FEB55FE4F308727831092AB011092C9
:100B3000AA0194E029C0811117C0E091A90191E0B8
:100B40009E0F9093A901F0E02091AA013091AB0192
:100B5000EE0FFF1FEB55FE4F308727831092AB013E
:100B60001092AA0193E010C02091AA013091AB012C
:100B70002536310558F007C0811108C01092AB012D
:100B80001092AA0103C095E09093A5019091A8014D
:100B90009923B9F081110AC08091A701882321F01F
:100BA0008091A70161E009C02D9A0BC08091A70137
:100BB000882331F08091A70160E00E94000801C005
:100BC0002D98FF91EF91BF91AF919F918F917F9160
:100BD0006F915F914F913F912F910F900FBE0F90AA
:100BE0001F9018951F920F920FB60F9211240F931A
:100BF0001F932F933F934F935F936F937F938F93A5
:100C00009F93AF93BF93CF93EF93FF93C0913A011C
:100C1000C130E9F482E00E94D7078C0183E00E9492
:100C2000D707801791071CF4C09377020CC082E0AD
:100C30000E94D7078C0183E00E94D7070817190785
:100C400034F410927702C093780210923A01FF9127
:100C5000EF91CF91BF91AF919F918F917F916F91C4
:100C60005F914F913F912F911F910F910F900FBE68
:100C70000F901F901895833081F028F4813099F0FF
:100C80008230A1F008958730A9F08830B9F084301F
:100C9000D1F4809180008F7D03C0809180008F7798
:100CA00080938000089584B58F7702C084B58F7DCE
:100CB00084BD08958091B0008F7703C08091B0000B
:100CC0008F7D8093B0000895E0910903F0910A03AD
:100CD000309729F010929101109290010994089593
:100CE000CF93DF93AC01E0910703F09108033097B5
:100CF000F1F090919301809192019817C0F090E0EB
:100D0000292F30E02617370754F4D901A758BD4FD3
:100D1000EA01C20FD31F28812C939F5FF1CF10925D
:100D2000930160939201CB01DF91CF910994DF9100
:100D3000CF9108950895CF92DF92EF92FF920F9393
:100D40001F93CF93DF936C017A018B01C0E0D0E059
:100D5000CE15DF0581F0D8016D918D01D601ED91A1
:100D6000FC910190F081E02DC6010995892B11F0CD
:100D70002196EECF7E01C701DF91CF911F910F9198
:100D8000FF90EF90DF90CF900895FC01538D448D3C
:100D9000252F30E0842F90E0821B930B541710F026
:100DA000CF96089501970895FC01918D828D981733
:100DB00061F0828DDF01A80FB11D5D968C91928D3F
:100DC0009F5F9F73928F90E008958FEF9FEF08953C
:100DD000FC01918D828D981731F0828DE80FF11D05
:100DE000858D90E008958FEF9FEF0895FC01918D20
:100DF000228D892F90E0805C9F4F821B91098F7319
:100E00009927089580E193E00E94F60621E0892B5E
:100E100009F420E0822F0895FC01848DDF01A80FE2
:100E2000B11DA35ABF4F2C91848D90E001968F7312
:100E30009927848FA689B7892C93A089B1898C9131
:100E4000837080648C93938D848D981306C0028880
:100E5000F389E02D80818F7D80830895EF92FF924A
:100E60000F931F93CF93DF93EC0181E0888F9B8DCD
:100E70008C8D981305C0E889F989808185FD26C08D
:100E8000F62E0B8D10E00F5F1F4F0F731127E02E12
:100E90008C8DE8120CC00FB607FCFACFE889F989EF
:100EA000808185FFF5CFCE010E940C07F1CF8B8D9D
:100EB000FE01E80FF11DE35AFF4FF0829FB7F8944F
:100EC0000B8FEA89FB89808180620AC09FB7F89402
:100ED000EE89FF896083E889F98980818370806465
:100EE00080839FBF81E090E0DF91CF911F910F91B0
:100EF000FF90EF900895CF93DF93EC01888D8823C6
:100F0000C9F0EA89FB89808185FD05C0A889B98976
:100F10008C9186FD0FC00FB607FCF5CF808185FF51
:100F2000F2CFA889B9898C9185FFEDCFCE010E94BF
:100F30000C07E7CFDF91CF91089580E090E0892BF7
:100F400029F00E94020781110C940000089585ED9C
:100F50008093BC008091BC0084FDFCCF10920603FE
:100F600008950895E091930180919201E81730F47B
:100F7000F0E0E758FD4F808190E008958FEF9FEFFC
:100F800008959091930180919201981750F4E92F60
:100F9000F0E0E758FD4F208130E09F5F9093930190
:100FA00002C02FEF3FEFC90108950E94A70DCF9314
:100FB000DF93282F30E0F901E255FF4F8491F901CA
:100FC000E656FF4FD491F901EA57FF4FC491CC2365
:100FD00091F081110E943B06EC2FF0E0EE0FFF1F15
:100FE000E458FF4FA591B491EC91ED2381E090E09E
:100FF00021F480E002C080E090E0DF91CF9108957D
:101000001F93CF93DF93282F30E0F901E255FF4F74
:101010008491F901E656FF4FD491F901EA57FF4F49
:10102000C491CC23C1F0162F81110E943B06EC2FF6
:10103000F0E0EE0FFF1FEE58FF4FA591B4919FB760
:10104000F894111104C08C91D095D82302C0EC9172
:10105000DE2BDC939FBFDF91CF911F910895CF933B
:10106000DF9390E0FC01E656FF4F2491FC01EA5724
:10107000FF4F8491882361F190E0880F991FFC0154
:10108000E859FF4FC591D491FC01EE58FF4FA5914F
:10109000B491611109C09FB7F8948881209582238B
:1010A0008883EC912E230BC0623061F49FB7F894D3
:1010B0008881322F309583238883EC912E2B2C93BB
:1010C0009FBF06C08FB7F894E8812E2B28838FBF6F
:1010D000DF91CF9108951F920F920FB60F921124B6
:1010E0002F933F938F939F93AF93BF9380919501DD
:1010F00090919601A0919701B091980130910F03C2
:1011000023E0230F2D3720F40196A11DB11D05C04A
:1011100026E8230F0296A11DB11D20930F03809393
:10112000950190939601A0939701B09398018091B7
:101130000B0390910C03A0910D03B0910E03019647
:10114000A11DB11D80930B0390930C03A0930D037D
:10115000B0930E03BF91AF919F918F913F912F91CB
:101160000F900FBE0F901F9018951F920F920FB601
:101170000F9211242F933F934F935F936F937F931D
:101180008F939F93AF93BF93EF93FF93E0910401ED
:10119000F09105010995FF91EF91BF91AF919F915A
:1011A0008F917F916F915F914F913F912F910F9010
:1011B0000FBE0F901F9018951F920F920FB60F92AF
:1011C00011242F933F934F935F936F937F938F934C
:1011D0009F93AF93BF93EF93FF93E0910201F09140
:1011E00003010995FF91EF91BF91AF919F918F916D
:1011F0007F916F915F914F913F912F910F900FBE13
:101200000F901F9018951F920F920FB60F921124F6
:101210002F933F934F935F936F937F938F939F93FE
:10122000AF93BF93EF93FF9380E193E00E940C078D
:10123000FF91EF91BF91AF919F918F917F916F91AE
:101240005F914F913F912F910F900FBE0F901F9084
:1012500018951F920F920FB60F9211242F938F9310
:101260009F93EF93FF93E0912003F09121038081FE
:10127000E0912603F091270382FD12C090818091B6
:1012800029038F5F8F7320912A03821751F0E09119
:101290002903F0E0E05FFC4F958F8093290301C0A4
:1012A0008081FF91EF919F918F912F910F900FBEB1
:1012B0000F901F9018951F920F920FB60F92112446
:1012C0002F933F934F935F936F937F938F939F934E
:1012D000AF93BF93EF93FF938091B900887F8036DF
:1012E00009F49CC068F5883209F45BC090F4803141
:1012F00009F454C038F4882309F4F6C0883009F49E
:101300004DC0F6C0883109F44CC0803209F45DC08C
:10131000EFC0803409F468C048F4803309F455C044
:10132000883309F0E5C08093DC02D8C0803509F429
:101330004FC0883509F45DC0883409F0D9C0D6C0E3
:10134000883909F4C7C0A8F4883709F467C038F4AD
:10135000883609F463C0803709F460C0C9C0883892
:1013600009F4B8C0803909F45FC0803809F0C0C002
:101370005BC0803B09F486C038F4803A09F466C04B
:10138000883A09F47FC0B4C0803C09F4A7C0883C07
:1013900009F4A4C0883B09F48AC0AAC08091FF0266
:1013A00010C09091FE028091FD02981770F5E091B7
:1013B000FE0281E08E0F8093FE02F0E0E352FD4FCB
:1013C00080818093BB0085EC86C08093DC028EC058
:1013D000E091FE0281E08E0F8093FE028091BB00BF
:1013E000F0E0E352FD4F80839091FE028091FD0278
:1013F0006EC0E091FE0281E08E0F8093FE0280912C
:10140000BB00F0E0E352FD4F808380910503811122
:101410006DC081E08093040384EA61C083E080931F
:1014200006031092DB02CFCF8091DB02803208F0FE
:1014300051C0E091DB0281E08E0F8093DB0280914E
:10144000BB00F0E0E554FD4F8083BDCF85EC809379
:10145000BC00109206038091DB02803230F4E091F0
:10146000DB02F0E0E554FD4F10826091DB0270E09A
:10147000E0910003F09101038BEB92E0099510924B
:10148000DB0236C084E0809306031092BA02109209
:10149000B902E0910203F091030309958091B9022A
:1014A000811105C081E08093B90210929902E09108
:1014B000BA0281E08E0F8093BA02F0E0E756FD4F4A
:1014C00080818093BB009091BA028091B9029817F5
:1014D00008F479CF85E88093BC000AC085EC80933E
:1014E000BC001092060304C01092DC020E94A70701
:1014F000FF91EF91BF91AF919F918F917F916F91EC
:101500005F914F913F912F910F900FBE0F901F90C1
:1015100018954091B902262F30E0240F311D213259
:101520003105DCF4209106032430C9F4FC0180E08D
:1015300090E0861758F43091B9022191DC01A7564A
:10154000BD4FA30FB11D2C930196F3CF8091B9022B
:10155000680F6093B90280E0089581E0089582E009
:101560000895CF92DF92EF92FF920F931F93E82F8F
:10157000F92F05C0015011092109310961F190814C
:1015800096239417B9F305C00150110921093109B7
:1015900011F1908196239413F7CFC12CD12CE12C1B
:1015A000F12C0AC08FEFC81AD80AE80AF80A0C15FD
:1015B0001D052E053F0579F080818623841791F360
:1015C0006C2D7D2D8E2D9F2D1F910F91FF90EF90F3
:1015D000DF90CF90089560E070E080E090E01F9190
:1015E0000F91FF90EF90DF90CF900895E0E1F3E04E
:1015F0001382128288EE93E0A0E0B0E084839583AA
:10160000A683B7832AE031E03183208325EC30E0E4
:101610003587248724EC30E03787268720EC30E0BC
:10162000318B208B21EC30E0338B228B22EC30E0AD
:10163000358B248B26EC30E0378B268B118E128E67
:10164000138E148EE9E9F1E013821282848395836C
:10165000A683B7838CE191E091838083E5EAF1E092
:1016600082E08183138284E0809368008BB3817170
:101670008BBB8CE080936D000895789484B5826074
:1016800084BD84B5816084BD85B5826085BD85B526
:10169000816085BD80916E00816080936E001092A4
:1016A000810080918100826080938100809181001F
:1016B00081608093810080918000816080938000B0
:1016C0008091B10084608093B1008091B00081600E
:1016D0008093B00080917A00846080937A0080913A
:1016E0007A00826080937A0080917A008160809392
:1016F0007A0080917A00806880937A001092C1000D
:10170000E0912003F091210382E08083E0911C03AB
:10171000F0911D031082E0911E03F0911F0383E3FB
:10172000808310922803E0912403F091250386E042
:101730008083E0912203F091230380818061808384
:10174000E0912203F0912303808188608083E091FF
:101750002203F0912303808180688083E09122033B
:10176000F091230380818F7D8083109293011092EA
:10177000920110929101109290011092060381E063
:10178000809305031092040361E082E10E94000847
:1017900061E083E10E9400088091B9008E7F809310
:1017A000B9008091B9008D7F8093B90088E480935F
:1017B000B80085E48093BC0084E696E09093030330
:1017C0008093020380E796E09093010380930003E7
:1017D00088E08093BA0084E791E0909308038093B7
:1017E00007038EEB90E090930A0380930903549AC9
:1017F0005C9880919401882329F00E94CE01109278
:10180000940102C00E94CE010E949D07F2CF0E9467
:101810000E0C6894B1110C949D0C08950E94820CDA
:1018200088F09F5798F0B92F9927B751B0F0E1F0A1
:10183000660F771F881F991F1AF0BA95C9F714C051
:10184000B13091F00E949C0CB1E008950C949C0C76
:10185000672F782F8827B85F39F0B93FCCF386958A
:1018600077956795B395D9F73EF4909580957095E7
:1018700061957F4F8F4F9F4F0895E89409C097FB64
:101880003EF490958095709561957F4F8F4F9F4F57
:101890009923A9F0F92F96E9BB279395F69587959B
:1018A00077956795B795F111F8CFFAF4BB0F11F45E
:1018B00060FF1BC06F5F7F4F8F4F9F4F16C0882305
:1018C00011F096E911C0772321F09EE8872F762F3B
:1018D00005C0662371F096E8862F70E060E02AF07C
:1018E0009A95660F771F881FDAF7880F9695879568
:1018F00097F9089557FD9058440F551F59F05F3FD1
:1019000071F04795880F97FB991F61F09F3F79F021
:1019100087950895121613061406551FF2CF4695A3
:10192000F1DF08C0161617061806991FF1CF869525
:101930007105610508940895E894BB276627772709
:10194000CB0197F908950E94B60C0C94270D0E94C4
:10195000190D38F00E94200D20F0952311F00C9401
:10196000100D0C94160D11240C949D0C0E947A0CF1
:1019700070F3959FC1F3950F50E0551F629FF001E2
:10198000729FBB27F00DB11D639FAA27F00DB11DFB
:10199000AA1F649F6627B00DA11D661F829F222784
:1019A000B00DA11D621F739FB00DA11D621F839F0B
:1019B000A00D611D221F749F3327A00D611D231FE1
:1019C000849F600D211D822F762F6A2F11249F572F
:1019D00050409AF0F1F088234AF0EE0FFF1FBB1F32
:1019E000661F771F881F91505040A9F79E3F5105F1
:1019F00080F00C94100D0C949D0C5F3FE4F3983E26
:101A0000D4F3869577956795B795F795E7959F5F9A
:101A1000C1F7FE2B880F911D9695879597F908952C
:101A200097F99F6780E870E060E008959FEF80EC91
:101A3000089500240A941616170618060906089534
:101A400000240A9412161306140605060895092E9A
:101A50000394000C11F4882352F0BB0F40F4BF2B09
:101A600011F460FF04C06F5F7F4F8F4F9F4F089549
:101A700097FB072E16F4009407D077FD09D00E943B
:101A80006B0D07FC05D03EF4909581959F4F08950E
:101A9000709561957F4F0895052E97FB1EF4009475
:101AA0000E94630D57FD07D00E947F0D07FC03D0F5
:101AB0004EF40C94630D50954095309521953F4F11
:101AC0004F4F5F4F089590958095709561957F4F2A
:101AD0008F4F9F4F0895AA1BBB1B51E107C0AA1F40
:101AE000BB1FA617B70710F0A61BB70B881F991FBF
:101AF0005A95A9F780959095BC01CD010895A1E272
:101B00001A2EAA1BBB1BFD010DC0AA1FBB1FEE1F77
:101B1000FF1FA217B307E407F50720F0A21BB30BC2
:101B2000E40BF50B661F771F881F991F1A9469F73E
:101B300060957095809590959B01AC01BD01CF019A
:101B40000895EE0FFF1F0590F491E02D099481E0B8
:0C1B500090E0F8940C94AC0DF894FFCFDA
:101B5C0002029A069A06000000002E079B06C50694
:101B6C007B07F606D406E80600000000AD00A200D4
:0A1B7C009500B1078C00C107B20705
:00000001FF
