:100000000C946C090C94EC0C0C94C50C0C94940995
:100010000C9494090C94A3140C9494090C94E91373
:100020000C9494090C9494090C9494090C949409DC
:100030000C9494090C94C2130C9494090C94940994
:100040000C9463180C9494090C94390D0C94130DB2
:100050000C9494090C9494090C9494090C949409AC
:100060000C946B0D0C9494094552524F522120442C
:100070004D5020636F6465207665726966696361BF
:1000800074696F6E206661696C65642E004552521A
:100090004F522120444D5020636F6E666967757220
:1000A0006174696F6E2076657269666963617469EF
:1000B0006F6E206661696C65642E005265736574AD
:1000C00074696E67204649464F20616E6420636CF8
:1000D000656172696E6720494E542073746174754E
:1000E00073206F6E65206C6173742074696D652E6A
:1000F0002E2E0053657474696E6720757020696ECA
:100100007465726E616C2034322D627974652028BA
:1001100064656661756C742920444D50207061637C
:100120006B6574206275666665722E2E2E004469BA
:100130007361626C696E6720444D502028796F7539
:10014000207475726E206974206F6E206C61746506
:1001500072292E2E2E00444D5020697320676F6F38
:100160006420746F20676F212046696E616C6C7922
:100170002E0057726974696E672066696E616C2023
:100180006D656D6F72792075706461746520372FAD
:1001900037202866756E6374696F6E20756E6B6E9E
:1001A0006F776E292E2E2E0043757272656E742045
:1001B000696E74657272757074207374617475738E
:1001C0003D0052656164696E6720696E7465727284
:1001D000757074207374617475732E2E2E005265C1
:1001E0006164696E67204649464F20646174612EE0
:1001F0002E2E0043757272656E74204649464F205C
:10020000636F756E743D0057616974696E6720662F
:100210006F72204649464F20636F756E74203E20F2
:10022000322E2E2E0052656164696E672066696EFB
:10023000616C206D656D6F72792075706461746595
:1002400020362F37202866756E6374696F6E2075AF
:100250006E6B6E6F776E292E2E2E0043757272654F
:100260006E7420696E746572727570742073746137
:100270007475733D0052656164696E6720696E74C0
:10028000657272757074207374617475732E2E2E7E
:100290000052656164696E67204649464F2064617B
:1002A00074612E2E2E0043757272656E742046495D
:1002B000464F20636F756E743D0057616974696EB7
:1002C0006720666F72204649464F20636F756E74D3
:1002D000203E20322E2E2E0057726974696E6720E0
:1002E00066696E616C206D656D6F727920757064E2
:1002F00061746520352F37202866756E6374696FC9
:100300006E20756E6B6E6F776E292E2E2E005772D3
:100310006974696E672066696E616C206D656D6FCA
:1003200072792075706461746520342F37202866D7
:10033000756E6374696F6E20756E6B6E6F776E2964
:100340002E2E2E0057726974696E672066696E6181
:100350006C206D656D6F72792075706461746520B5
:10036000332F37202866756E6374696F6E20756E43
:100370006B6E6F776E292E2E2E0052657365747426
:10038000696E6720444D502E2E2E00456E61626CC2
:10039000696E6720444D502E2E2E00456E61626CB2
:1003A000696E67204649464F2E2E2E0052657365B2
:1003B0007474696E67204649464F2E2E2E00536591
:1003C0007474696E67207A65726F2D6D6F74696FD2
:1003D0006E20646574656374696F6E206475726104
:1003E00074696F6E20746F20302E2E2E005365744A
:1003F00074696E67206D6F74696F6E2064657465D3
:100400006374696F6E206475726174696F6E2074B5
:100410006F2038302E2E2E0053657474696E67205D
:100420007A65726F2D6D6F74696F6E206465746587
:100430006374696F6E207468726573686F6C642092
:10044000746F203135362E2E2E0053657474696E0C
:1004500067206D6F74696F6E20646574656374697D
:100460006F6E207468726573686F6C6420746F209F
:10047000322E2E2E0043757272656E7420464946E8
:100480004F20636F756E743D0052656164696E67DD
:10049000204649464F20636F756E742E2E2E0052F3
:1004A0006573657474696E67204649464F2E2E2E1B
:1004B0000057726974696E672066696E616C206DA1
:1004C000656D6F72792075706461746520322F37A5
:1004D000202866756E6374696F6E20756E6B6E6F23
:1004E000776E292E2E2E0001B202FFFF0190040923
:1004F00023A135016A020600016008000000000027
:1005000000000000600440000000016202000000E2
:1005100060040040000057726974696E6720666964
:100520006E616C206D656D6F727920757064617499
:100530006520312F37202866756E6374696F6E20D1
:10054000756E6B6E6F776E292E2E2E005365747448
:10055000696E6720582F592F5A206779726F206F64
:1005600066667365742054437320746F20707265DF
:1005700076696F75732076616C7565732E2E2E000B
:10058000436C656172696E67204F54502042616E02
:100590006B20666C61672E2E2E0053657474696E35
:1005A0006720444D502070726F6772616D6D2073CB
:1005B000746172742061646472657373005365744E
:1005C00074696E67206779726F2073656E736974E2
:1005D000697669747920746F202B2F2D203230308A
:1005E00030206465672F7365632E2E2E005365746B
:1005F00074696E6720444C50462062616E6477696E
:1006000064746820746F203432487A2E2E2E005382
:10061000657474696E672065787465726E616C20AC
:100620006672616D652073796E6320746F20544526
:100630004D505F4F55545F4C5B305D2E2E2E005356
:10064000657474696E672073616D706C652072618A
:10065000746520746F20323030487A2E2E2E00536D
:10066000657474696E6720444D5020616E64204645
:1006700049464F5F4F464C4F5720696E7465727202
:100680007570747320656E61626C65642E2E2E0029
:1006900053657474696E6720636C6F636B20736F4E
:1006A0007572636520746F205A204779726F2E2E01
:1006B0002E00537563636573732120444D5020638E
:1006C0006F6E66696775726174696F6E20777269A3
:1006D0007474656E20616E64207665726966696502
:1006E000642E00037B034CCD6C03AB0336567600BF
:1006F000680402CB47A202180400058BC1010C0458
:1007000000000000037F060CC92C9797970389030C
:10071000264666006C022000024004000000000231
:1007200044040000000002480400000000024C04E1
:100730000000000002500400000000025404000009
:10074000000002580400000000025C0400000000E9
:1007500002BC040000000001EC0400004000037F24
:10076000060CC92C9797970402030D355D04090404
:10077000872D353D00A3010000000001078601FE22
:10078000074105F120283038077E01300746019ADD
:10079000074704F1283038076C04F1283038021676
:1007A00002000120627974657320696E20636F6EA8
:1007B00066696720646566290057726974696E67A7
:1007C00020444D5020636F6E66696775726174696D
:1007D0006F6E20746F204D5055206D656D6F72796E
:1007E0002062616E6B7320280053756363657373B9
:1007F0002120444D5020636F6465207772697474C2
:10080000656E20616E642076657269666965642E26
:1008100000696E76616C6964210076616C6964219F
:1008200000FB00003E000B00360001000200030048
:100830000000650054FFEF0000FA80000B128200F8
:1008400001000200000000000000000000000000A5
:100850000000280000FFFF4581FFFFFA7200000042
:1008600000000003E80000000100017FFFFFFE80A0
:1008700001001B000000000000000000000000005C
:1008800000003E03304000000002CAE3093E800041
:100890000020000000000000004000000060000098
:1008A0000041FF000000000B2A0000165500002147
:1008B00082FD872650FD800000001F00000005809B
:1008C0000000000000000100000002000000030022
:1008D00000400000000000046F0002653200005E6E
:1008E000C040000000000000000000000000000008
:1008F00000FB8C6F5DFD5D08D9007C733B006C12C2
:10090000CC3200139D3200D0D632000800400001E6
:10091000F4FFE68079020000000000D0D600002736
:1009200010FB00000040000000000000000000007C
:1009300000000000010000000000000100010000B4
:10094000000000FA36FFBC308E0005FBF0FFD95BDB
:10095000C8FFD09ABE000010A9FFF41EB200CEBBA3
:10096000F700000001000000040002000202000085
:100970000CFFC280000001800000CF80004000001A
:100980000000000001000000000000060000000060
:100990001400000000000000000000000000000043
:1009A0000000000000000000000000000000000047
:1009B0000000000000000000000000000000000037
:1009C0000000000000033F68B6793528BCC67ED120
:1009D0006C80000000400000000000B26A000000CF
:1009E00000000000000000000000003FF0000000D8
:1009F00030000000000000000000000000000000C7
:100A000000000000000000000000000000000000E6
:100A1000000000254D002F706D000005AE000C0297
:100A2000D00000000000650054FFEF00000000004F
:100A300000000001000044000000000C0000000164
:100A400000000000000065000000540000FFEF00FF
:100A50000000000000000000000000000000000096
:100A60000040000000000000000000000000000046
:100A70000040000000000000000000000000000036
:100A80000000000001000000020000000000000063
:100A90000000000000000000000000000000000056
:100AA0000000000000000000000000000000000046
:100AB00000001B000000000000000000000000001B
:100AC0000000000000000000000000000000000026
:100AD00000000000000000000000000000400000D6
:100AE00000001B00000000000000000000000000EB
:100AF00000000000000000000000000000000000F6
:100B000000000000000000000000000000000000E5
:100B100000000000000000000000000000000000D5
:100B200000D8DCBAA2F1DEB2B8B4A88191F74A903D
:100B30007F916AF3F9DBA8F9B0BAA080F2CE81F315
:100B4000C2F1C1F2C3F3CCA2B280F1C6D880BAA779
:100B5000DFDFDFF2A7C3CBC5B6F087A294244870CD
:100B60003C95406834589B78A2F183922D557DD8EE
:100B7000B1B4B8A1D09180F270F370F27C80A8F18A
:100B800001B09887D943D886C988BAA1F20EB89720
:100B900080F1A9DFDFDFAADFDFDFF2AAC5CDC7A9B9
:100BA0000CC92C97979797F1A989264666B0B4BAD5
:100BB00080ACDEF2CAF1B28C02A9B69800890E169A
:100BC0001EB8A9B4992C547CB08AA896365676F1F2
:100BD000B9AFB4B083C0B8A89711B18F98B9AFF0CE
:100BE000240844106418F1A329557DAF83B593AF51
:100BF000F0002850F1A3869F61A6DADEDFD9FAA3C0
:100C00008696DB31A6D9F8DFBAA68FC2C5C7B28CEB
:100C1000C1B8A2DFDFDFA3DFDFDFD8D8F1B8A8B229
:100C200086B4980D355DB8AA98B0872D353DB2B61B
:100C3000BAAF8C96198F9FA70E161EB49AB8AA87C2
:100C40002C547CB9A3DEDFDFA3B180F2C4CDC9F19F
:100C5000B8A9B499830D355D89B9A32D557DB59398
:100C6000A30E161EA92C547CB8B4B0F19783A8111A
:100C700084A50998A383F0DA240844106418D8F1F5
:100C8000A529557DA58595021A2E3A565A4048F950
:100C9000F3A3D9F8F098832408441064189782A825
:100CA000F111F098A2240844106418DAF3DED88316
:100CB000A59401D9A302F1A2C3C5C7D8F18492A219
:100CC0004DDA2AD84869D92AD86855DA32D850710D
:100CD000D932D8705DDA3AD85879D93AD87893A30E
:100CE0004DDA2AD84869D92AD86855DA32D85071ED
:100CF000D932D8705DDA3AD85879D93AD878A88AF2
:100D00009AF02850789EF38818F19F1D98A8D9086A
:100D1000D8C89F129EF315A8DA1210D8F1AFC89761
:100D20008734B5B994A421F3D922D8F22DF3D92A66
:100D3000D8F235F3D932D881A4606061D961D86C1A
:100D40006869D969D8747071D971D8B1A384193D13
:100D50005DA3831A3E5E931030811011B8B0AF8F3F
:100D600094F2DA3ED8B49AA88729DAF8D8879A3567
:100D7000DAF8D8879A3DDAF8D8B1B9A49885022E66
:100D800056A581000C14A397B08AF12DD928D84D0F
:100D9000D948D86DD968D8B1840DDA0ED8A3298383
:100DA000DA2C0ED8A3844983DA2C4C0ED8B8B0A81C
:100DB0008A9AF520AADADFD8A840AAD0DADED8A825
:100DC00060AADAD0DFD8F19786A8319B069907ABE5
:100DD0009728889BF00C201440B8B0B4A88C9CF0E5
:100DE000042851791D301438B282ABD0982C505061
:100DF00078789BF11AB0F08A9CA82951798B2951F7
:100E0000798A2470598B2058718A4469388B39400B
:100E1000688A6448318B304960A58820097158443C
:100E200068113964493019F1AC002C547CF08CA85D
:100E300004285078F1889726A85998AC8C02264649
:100E400066F0899CA829517924705944693864480E
:100E500031A98809205970AB11384069A819314867
:100E6000608CA83C415C207C00F187981986A86EB4
:100E7000767EA999882D557D9EB9A38A228A6E8A8D
:100E8000568A5E9FB183062646660E2E4E6E9DB82C
:100E9000AD002C547CF2B18CB499B9A32D557D8151
:100EA00091AC38AD3AB58391AC2DD928D84DD948FD
:100EB000D86DD968D88C9DAE29D904AED851D90443
:100EC000AED879D904D881F39DAD008DAE1981AD2E
:100ED000D901D8F2AEDA26D88E912983A7D9ADAD43
:100EE000ADADF32AD8D8F1B0AC89913E5E76F3ACC3
:100EF0002E2EF1B18C5A9CAC2C2828289CAC301892
:100F0000A8988128343C9724A728343C9C24F2B02C
:100F100089AC912C4C6C8A9B2DD9D8D851D9D8D872
:100F200079D9D8D8F19E88A331DAD8D8912DD9288B
:100F3000D84DD948D86DD968D8B18393353D80252F
:100F4000DAD8D88569DAD8D8B49381A328343CF3A9
:100F5000AB8BF8A391B609B4D9ABDEFAB0879CB9D4
:100F6000A3DDF1A3A3A3A395F1A3A3A39DF1A3A341
:100F7000A3A3F2A3B49080F2A3A3A3A3A3A3A3A3C8
:100F8000A3A3B2A3A3A3A3A3A3B087B599F1A3A3DB
:100F9000A398F1A3A3A3A397A3A3A3A3F39BA3A3A2
:100FA000DCB9A7F1262626D8D8FF206279746573AC
:100FB000290057726974696E6720444D5020636F31
:100FC000646520746F204D5055206D656D6F72798A
:100FD0002062616E6B7320280052657365747469BA
:100FE0006E6720493243204D617374657220636FD0
:100FF0006E74726F6C2E2E2E0053657474696E675A
:1010000020736C617665203020616464726573734F
:1010100020746F2030783638202873656C66292E4E
:101020002E2E0044697361626C696E6720493243F9
:10103000204D6173746572206D6F64652E2E2E00D5
:1010400053657474696E6720736C61766520302017
:101050006164647265737320746F20307837462E34
:101060002E2E005A206779726F206F666673657442
:10107000203D200059206779726F206F6666736586
:1010800074203D200058206779726F206F66667368
:101090006574203D200052656164696E6720677940
:1010A000726F206F66667365742054432076616C9E
:1010B0007565732E2E2E004F54502062616E6B208A
:1010C0006973200052656164696E67204F54502037
:1010D00062616E6B2076616C696420666C61672E5C
:1010E0002E2E00526573657474696E67206D656D90
:1010F0006F72792062616E6B2073656C65637469D1
:101100006F6E20746F20302E2E2E0052657669731C
:10111000696F6E204020757365725B31365D5B369A
:101120005D203D2000436865636B696E67206861E0
:10113000726477617265207265766973696F6E2E6D
:101140002E2E0053656C656374696E67206D656D46
:101150006F7279206279746520362E2E2E005365C9
:101160006C656374696E6720757365722062616E69
:101170006B2031362E2E2E0044697361626C696ECD
:101180006720736C656570206D6F64652E2E2E0070
:101190000A0A526573657474696E67204D5055363E
:1011A0003035302E2E2E002900444D5020496E69D6
:1011B0007469616C697A6174696F6E206661696CCB
:1011C00065642028636F64652000444D502072657B
:1011D000616479212057616974696E6720666F7256
:1011E00020666972737420696E74657272757074AA
:1011F0002E2E2E00292E2E2E00456E61626C696EF9
:101200006720696E746572727570742064657465A8
:101210006374696F6E202841726475696E6F206512
:10122000787465726E616C20696E74657272757027
:10123000742000456E61626C696E6720444D502ECB
:101240002E2E004D50553630353020636F6E6E6552
:101250006374696F6E206661696C6564004D5055FA
:101260003630353020636F6E6E656374696F6E2043
:101270007375636365737366756C0000000000240A
:101280000027002A0000000000250028002B000095
:1012900000000023002600290004040404040404C0
:1012A0000402020202020203030303030301020415
:1012B00008102040800102040810200102040810D8
:1012C00020000000080002010000030407000000E5
:1012D000000000000000F31E11241FBECFEFD8E075
:1012E000DEBFCDBF11E0A0E0B1E0EEEFF6E402C05A
:1012F00005900D92A633B107D9F724E0A6E3B1E03B
:1013000001C01D92A231B207E1F719E0CCE6D9E0A5
:1013100004C02197FE010E943E21CB36D107C9F7B8
:101320000E94F2180C947D230C9400000895CF9233
:10133000DF92EF92FF920F931F93CF93DF936C0195
:101340007A018B01C0E0D0E0CE15DF0581F0D80135
:101350006D918D01D601ED91FC910190F081E02D10
:10136000C6010995892B11F02196EECF7E01C701A8
:10137000DF91CF911F910F91FF90EF90DF90CF9071
:101380000895FC01538D448D252F30E0842F90E08B
:10139000821B930B541710F0CF9608950197089570
:1013A000FC01918D828D981761F0828DDF01A80F6D
:1013B000B11D5D968C91928D9F5F9F73928F90E08F
:1013C00008958FEF9FEF0895FC01918D828D9817FE
:1013D00031F0828DE80FF11D858D90E008958FEF3B
:1013E0009FEF0895FC01918D228D892F90E0805C04
:1013F0009F4F821B91098F739927089589E592E089
:101400000E94F20921E0892B09F420E0822F08953F
:10141000FC01848DDF01A80FB11DA35ABF4F2C9191
:10142000848D90E001968F739927848FA689B78960
:101430002C93A089B1898C91837080648C93938D57
:10144000848D981306C00288F389E02D80818F7DFA
:1014500080830895EF92FF920F931F93CF93DF93B2
:10146000EC0181E0888F9B8D8C8D981305C0E889F5
:10147000F989808185FD26C0F62E0B8D10E00F5F67
:101480001F4F0F731127E02E8C8DE8120CC00FB682
:1014900007FCFACFE889F989808185FFF5CFCE0175
:1014A0000E94080AF1CF8B8DFE01E80FF11DE35A6F
:1014B000FF4FF0829FB7F8940B8FEA89FB898081F8
:1014C00080620AC09FB7F894EE89FF896083E8893B
:1014D000F98980818370806480839FBF81E090E080
:1014E000DF91CF911F910F91FF90EF900895CF93CF
:1014F000DF93EC01888D8823C9F0EA89FB8980811C
:1015000085FD05C0A889B9898C9186FD0FC00FB6ED
:1015100007FCF5CF808185FFF2CFA889B9898C912E
:1015200085FFEDCFCE010E94080AE7CFDF91CF9172
:10153000089580E090E0892B29F00E94FE09811136
:101540000C940000089585ED8093BC008091BC0050
:1015500084FDFCCF1092340208954091DF01262FC4
:1015600030E0240F311D21323105DCF420913402AA
:101570002430C9F4FC0180E090E0861758F43091E3
:10158000DF012191DC01A154BE4FA30FB11D2C93AB
:101590000196F3CF8091DF01680F6093DF0180E057
:1015A000089581E0089582E00895E0910A02F091A3
:1015B0000B02309729F010923602109258020994CB
:1015C0000895CF93DF93EC01E0910802F0910902B6
:1015D0003097F1F090910702809106029817C0F0C1
:1015E00090E0292F30E02617370754F4DE01A20FD0
:1015F000B31F4C91D901A156BE4F4C939F5FF1CFC1
:101600001092070260930602CB01DF91CF910994FB
:10161000DF91CF9108950895E0910702809106022D
:10162000E81730F4F0E0E156FE4F808190E0089535
:101630008FEF9FEF0895909107028091060298170F
:1016400050F4E92FF0E0E156FE4F208130E09F5F3B
:101650009093070202C02FEF3FEFC90108958091D8
:10166000060290E020910702821B91090895CF9213
:10167000DF92EF92FF920F931F93CF93DF937C0142
:10168000CB018A0120913502222389F0EB016B0105
:10169000C40ED51ECC15DD0569F06991D701ED9119
:1016A000FC910190F081E02DC7010995F3CF642FE3
:1016B0000E94AD0AC801DF91CF911F910F91FF9059
:1016C000EF90DF90CF900895CF93DF931F92CDB727
:1016D000DEB76983209135022223D1F02091580290
:1016E000203240F021E030E0FC013383228380E0AF
:1016F00090E015C080913602E82FF0E0E95CFD4FE4
:10170000998190838F5F809336028093580205C041
:1017100061E0CE0101960E94AD0A81E090E00F9059
:10172000DF91CF910895089580E090E00895809131
:101730009D0190919E01019690939E0180939D0141
:10174000089580910C028111A8C080919801813088
:1017500041F442E050E063E871E086EF92E00E94DD
:10176000370B80919801833009F49CC080919801D7
:10177000873009F497C080919801883309F492C0AA
:1017800080919801883009F496C080919801843145
:1017900009F491C0809198018E3141F449E050E004
:1017A00063E871E086EF92E00E94370B8091980128
:1017B000883241F449E050E06EE671E086EF92E055
:1017C0000E94370B80919801803651F445E050E03B
:1017D00063E871E086EF92E00E94370B109283017C
:1017E00080919801853151F448E050E063E871E060
:1017F00086EF92E00E94370B10928301809198014E
:10180000883141F442E050E063E871E086EF92E015
:101810000E94370B809198018A3071F445E050E0C6
:1018200063E871E086EF92E00E94370B10926D0141
:1018300010926C011092980180919801863051F4B9
:1018400043E050E063E871E086EF92E00E94370BDE
:1018500010929801809198018B3071F443E050E030
:1018600069E671E086EF92E00E94370B10926A0100
:101870001092690110929801809198018C3021F5A5
:1018800043E050E066E671E086EF92E00E94370B9D
:101890001092660110929801089567E186EF92E038
:1018A0000C94640B43E050E063E871E086EF92E053
:1018B0000E94370B65CF44E050E063E871E086EFAB
:1018C00092E00E94370B66CF08950F931F93CF933A
:1018D000DF9380910C0281112FC001E010E0809114
:1018E000060220910702821719F190E0821B9109EC
:1018F000049761F4109265011092640110926301E3
:10190000109262011093610100936001C091620125
:10191000D0916301CE01019690936301809362019F
:1019200086EF92E00E941B0BC856DE4F8883D7CF0C
:1019300081E080930C020BC0909106028091070217
:10194000981729F086EF92E00E941B0BF5CFDF91EC
:10195000CF911F910F91089581E0809347010895E1
:101960000E942B23CF93DF9382E00E946417EC0147
:1019700083E00E9464178C239D23019719F481E072
:1019800080934601DF91CF9108951F920F920FB679
:101990000F9211242F933F934F935F936F937F93F5
:1019A0008F939F93AF93BF93EF93FF93E0910401C5
:1019B000F09105010995FF91EF91BF91AF919F9132
:1019C0008F917F916F915F914F913F912F910F90E8
:1019D0000FBE0F901F9018951F920F920FB60F9287
:1019E00011242F933F934F935F936F937F938F9324
:1019F0009F93AF93BF93EF93FF93E0910201F09118
:101A000003010995FF91EF91BF91AF919F918F9144
:101A10007F916F915F914F913F912F910F900FBEEA
:101A20000F901F9018951F920F920FB60F921124CE
:101A30002F933F934F935F936F937F938F939F93D6
:101A4000AF93BF93EF93FF9389E592E00E94080A5A
:101A5000FF91EF91BF91AF919F918F917F916F9186
:101A60005F914F913F912F910F900FBE0F901F905C
:101A700018951F920F920FB60F9211242F938F93E8
:101A80009F93EF93FF93E0916902F0916A02808146
:101A9000E0916F02F091700282FD12C090818091FE
:101AA00072028F5F8F7320917302821751F0E09161
:101AB0007202F0E0E75AFD4F958F8093720201C0E9
:101AC0008081FF91EF919F918F912F910F900FBE89
:101AD0000F901F9018951F920F920FB60F9211241E
:101AE0002F933F934F935F936F937F938F939F9326
:101AF000AF93BF93EF93FF938091B900887F8036B7
:101B000009F49CC068F5883209F45BC090F4803118
:101B100009F454C038F4882309F4F6C0883009F475
:101B20004DC0F6C0883109F44CC0803209F45DC064
:101B3000EFC0803409F468C048F4803309F455C01C
:101B4000883309F0E5C080933202D8C0803509F4AB
:101B50004FC0883509F45DC0883409F0D9C0D6C0BB
:101B6000883909F4C7C0A8F4883709F467C038F485
:101B7000883609F463C0803709F460C0C9C088386A
:101B800009F4B8C0803909F45FC0803809F0C0C0DA
:101B90005BC0803B09F486C038F4803A09F466C023
:101BA000883A09F47FC0B4C0803C09F4A7C0883CDF
:101BB00009F4A4C0883B09F48AC0AAC080910F022E
:101BC00010C09091310280913002981770F5E09129
:101BD000310281E08E0F80933102F0E0E05FFD4F33
:101BE00080818093BB0085EC86C0809332028EC0DA
:101BF000E091310281E08E0F809331028091BB0031
:101C0000F0E0E05FFD4F80839091310280913002DF
:101C10006EC0E091310281E08E0F8093310280919D
:101C2000BB00F0E0E05FFD4F8083809133028111C3
:101C30006DC081E080930E0284EA61C083E08093EE
:101C4000340210920102CFCF80910102803208F05D
:101C500051C0E091010281E08E0F809301028091DA
:101C6000BB00F0E0EF51FE4F8083BDCF85EC809349
:101C7000BC001092340280910102803230F4E09175
:101C80000102F0E0EF51FE4F10826091010270E01E
:101C9000E0910202F091030281EE91E00995109229
:101CA000010236C084E0809334021092E001109269
:101CB000DF01E0910402F091050209958091DF01B6
:101CC000811105C081E08093DF011092BF01E09196
:101CD000E00181E08E0F8093E001F0E0E154FE4FDF
:101CE00080818093BB009091E0018091DF01981783
:101CF00008F479CF85E88093BC000AC085EC809316
:101D0000BC001092340204C0109232020E94A30A56
:101D1000FF91EF91BF91AF919F918F917F916F91C3
:101D20005F914F913F912F910F900FBE0F901F9099
:101D30001895FF920F931F93CF93DF93142FF22EDA
:101D4000032F91E090933502809357021092360250
:101D50001092580286EF92E00E94640BCF2DD02F94
:101D6000CE01810F911D8C01C017D10731F069910F
:101D700086EF92E00E94640BF7CF81E00E94441549
:101D800091E0811190E0892FDF91CF911F910F9108
:101D9000FF900895CF93DF931F92CDB7DEB74983AD
:101DA0009E012F5F3F4F41E00E94990E0F90DF91FF
:101DB000CF9108952F923F924F925F926F927F92B0
:101DC0008F929F92AF92BF92CF92DF92EF92FF924B
:101DD0000F931F93CF93DF93CDB7DEB728970FB63E
:101DE000F894DEBF0FBECDBFD82EC62E4F8349015B
:101DF0000E9457182B013C012D2C220CE12C188637
:101E0000FF24F3942F81A22EB12C33243A94C801DD
:101E1000A0E0B0E08B839C83AD83BE839F81E916F5
:101E200008F084C0F0923502D09257021092360228
:101E3000109258026C2D86EF92E00E94640B81E0B4
:101E40000E944415F0923502D09257021092360249
:101E500010925802809134028111FCCFC5018E1975
:101E600091098132910514F080E290E0813208F00E
:101E700080E2F0923402F0923302309232021092F9
:101E800031029FEF980F90933002F0920F029091E1
:101E90000F02922990930F0290910E02913071F4EB
:101EA00010920E0290910F029093BB009091BC0093
:101EB00093FDF8CFA5ECA093BC0003C0B5EEB093A2
:101EC000BC00909134029130E1F390913102981767
:101ED00010F480913102E0E1F2E0AFE9B1E090E08E
:101EE000981721F021912D939F5FFACF109207024E
:101EF000909306029091060280910702981709F4C8
:101F000047C00115110589F10E945718DC01CB016A
:101F100084199509A609B7092B813C814D815E8101
:101F200082179307A407B50700F132C00115110508
:101F3000A9F10E945718DC01CB0184199509A60963
:101F4000B70920E030E080179107A207B30730F10E
:101F50004F81242F30E05885852F550F990B82171C
:101F60009307E4F48FEF888719C0D401E885AE0F9A
:101F7000B11DE7FDBA95BA83A98386EF92E00E946E
:101F80001B0BA981BA818C93B885BF5FB887B2CF8C
:101F90008F81813208F080E2E80E40CF8885289654
:101FA0000FB6F894DEBF0FBECDBFDF91CF911F916A
:101FB0000F91FF90EF90DF90CF90BF90AF909F90E8
:101FC0008F907F906F905F904F903F902F900895EB
:101FD000BF92CF92DF92EF92FF920F931F93CF9316
:101FE000DF931F92CDB7DEB7F82EE62EC42EB22EA9
:101FF000D02E08EE13E09E012F5F3F4F41E00E947C
:10200000DA0E882339F12C2D30E02B1931092F5F9E
:102010003F4F81E090E002C0880F991FBA94E2F729
:102020000197022E01C0880F0A94EAF74D2D50E067
:10203000BA0102C0660F771F2A95E2F7482F409534
:10204000998149238623482B49836E2D8F2D0E9429
:10205000CA0E01C080E00F90DF91CF911F910F91C8
:10206000FF90EF90DF90CF90BF900895CF92DF92D6
:10207000EF92FF920F931F93CF93DF931F92CDB7F1
:10208000DEB7F82EE62ED42EC22E08EE13E09E0107
:102090002F5F3F4F41E00E94DA0E898141E050E01E
:1020A00001C0440FDA94EAF7CC2011F0482B02C0AB
:1020B0004095482349836E2D8F2D0E94CA0E0F90A4
:1020C000DF91CF911F910F91FF90EF90DF90CF9014
:1020D0000895EF92FF920F931F93CF93DF9300D059
:1020E00000D0CDB7DEB78091620190916301049773
:1020F000D9F48091640190916501892BA9F481E064
:1021000090E0909365018093640180919801813003
:1021100009F087C080919801809383018091990193
:102120000E94641780938401809158019091590115
:10213000892B59F18091E803813039F52091E7032B
:102140008091500190915101213049F401968931DB
:10215000910554F0109251011092500109C001975D
:1021600097FF02C088E190E0909351018093500165
:10217000809198018093690181E080936A01809148
:10218000500180936B011092E8038091520190916D
:102190005301892B09F4EBC20E9457180091540196
:1021A000109155012091560130915701DC01CB016E
:1021B000801B910BA20BB30B813D9740A105B1058C
:1021C00008F4D5C280919D0190919E014EE1489FF7
:1021D0009001499F300D112481E080936601C9016F
:1021E00069E470E00E94D520CB0160E071E00E94BC
:1021F000D52080936701C90160E079E40E94D52071
:102200006093680110929E0110929D010E945718E0
:102210006093540170935501809356019093570138
:10222000A6C280919801823029F460919A01809130
:10223000990142C080919801833051F580919901B4
:102240008E3008F08E508770806480937C0080917F
:102250007A00806480937A0080917A0086FDFCCFBA
:10226000809178002091790090E0922B2091980144
:10227000209383019C0197FF02C021503F4F309370
:10228000840160E071E00E94D520809385014CCFED
:1022900080919801843009F05EC000919A01E02E8F
:1022A000F12C1091990161E0812F0E94BC17E1147B
:1022B000F10429F460E0812F0E948D1735CF2FEFB4
:1022C000E216F10409F445C0E12FF0E0EF53FD4EB2
:1022D000E491E330F9F048F4E130B9F0E230A1F5EF
:1022E00084B5806284BD08BD1FCFE730E9F0E830D7
:1022F00019F1E43049F5809180008062809380007C
:10230000F0928B00E0928A000FCF84B5806884BD84
:1023100007BD0ACF80918000806880938000F09292
:102320008900E092880000CF8091B000806880939F
:10233000B0000093B300F8CE8091B000806280932B
:10234000B0000093B400F0CE80E8E816F1040CF47D
:10235000B1CF61E0B0CF80919801853039F46091C0
:102360009A01809199010E94BC17DECE809198015C
:10237000873009F076C00091990161E0802F0E94BA
:10238000BC1710919A0160E0812F0E94BC1760E099
:10239000802F0E948D1783E090E00197F1F761E0B4
:1023A000802F0E948D1783E290E00197F1F760E0A3
:1023B000802F0E948D17812F90E0FC01E355FD4E88
:1023C0006491FC01E756FD4EE491F0E0EE0FFF1F33
:1023D000E157FD4E8591949100E412E42FE030E046
:1023E000462F0E94AD18611571058105910539F0E0
:1023F000DC01CB010196A11DB11DBF7003C080E0BF
:1024000090E0DC0180935A0190935B01A0935C0102
:10241000B0935D0160915A0170915B0180915C0104
:1024200090915D010E94DA1F26E933E44BE05DE301
:102430000E94402020E030E040E05FE30E94402026
:102440000E94A41F209198012093830120E031E095
:1024500040E050E00E940B212093840160938501AD
:1024600063CE80919801883061F4809198018093C7
:10247000830182E08093840110928501109286018D
:1024800053CE80919801883209F44ECE8091980104
:10249000823309F449CE80919801833309F444CE04
:1024A00080919801843309F43FCE8091980185335F
:1024B00009F43ACE80919801863309F435CE8091A3
:1024C0009801873309F430CE80919801883309F45C
:1024D0002BCE80919801863409F426CE8091980104
:1024E000873409F421CE80919801883409F41CCEF8
:1024F00080919801893409F417CE809198018A342B
:1025000009F412CE809198018B3409F40DCE80919C
:1025100098018C3409F408CE809198018D3409F427
:1025200003CE809198018E3409F4FECD80919801FC
:102530008F3409F4F9CD809198018A3509F4F4CDEE
:10254000809198018B3509F4EFCD809198018C35FD
:1025500009F4EACD809198018D3509F4E5CD80919B
:1025600098018E3509F4E0CD809198018F3509F4FA
:10257000DBCD809198018036F1F48AE999E9A1E2F6
:10258000B1E489839A83AB83BC8380919801809363
:102590008301FE01319681E090E02191DC01AD578D
:1025A000BE4F2C93019685309105B9F79093490160
:1025B00080934801B9CD809198018E3009F4B4CD53
:1025C000809198018F3009F4AFCD809198018930C6
:1025D00009F4AACD80919801863009F4A5CD8091A7
:1025E00098018A3009F4A0CD809198018031C9F515
:1025F000109280008093810021E020934C018FB7DE
:1026000080934D01F89480E49FE190934B01809377
:102610004A01909387008093860080914D018FBF7F
:1026200080918100887F80938100909181008091CA
:102630004C01982B9093810042EB5CE050934F014A
:1026400040934E0120936F0090918100892B8093DD
:102650008100789481E090E0909359018093580133
:102660006AC080919801813151F480916F008E7F12
:1026700080936F00109259011092580155CD8091AE
:1026800098018231F1F510919901109301011230F6
:1026900021F0133021F08FEF03C080E001C081E012
:1026A00060E00E94BC17123019F01330A9F453C037
:1026B00080E0E82FF0E0EE0FFF1FEE5FFE4F27E90E
:1026C0003BE031832083813009F447C08091690069
:1026D000836080936900E89A10929E0110929D0198
:1026E0000E945718609354017093550180935601CE
:1026F0009093570181E090E09093530180935201B1
:102700001AC0809198018D30C9F410925301109233
:10271000520180910101823019F0833061F424C0AC
:10272000E898E0E0F0E0EE0FFF1FEE5FFE4F86E975
:1027300099E09183808310929801F6CC8091980162
:10274000863109F4F1CC80919801853109F4ECCC03
:1027500080919801E9CC81E0ACCF809169008C60D8
:1027600080936900E99AB8CFE998E1E0DBCF0F9058
:102770000F900F900F90DF91CF911F910F91FF90CD
:10278000EF9008951F920F920FB60F9211242F937E
:102790003F934F935F936F937F938F939F93AF93E9
:1027A000BF93EF93FF93E0914E01F0914F01099594
:1027B000FF91EF91BF91AF919F918F917F916F9119
:1027C0005F914F913F912F910F900FBE0F901F90EF
:1027D00018951F920F920FB60F9211242F933F93CB
:1027E0004F935F936F937F938F939F93AF93BF9319
:1027F000EF93FF93809103030E94641720910703D6
:10280000309108032F5F3F4F309308032093070355
:1028100090910603953618F096E0909302039091FC
:1028200002039430C9F128F4923069F09330D1F06A
:102830005EC0953009F451C0963009F058C091E05F
:102840009093D30351C0811152C02091070330915E
:1028500008032436310508F442C01092D3031092C5
:1028600006031CC0813009F042C0E091060391E0EC
:102870009E0F90930603F0E0209107033091080328
:10288000EE0FFF1FEE5FFC4F308727831092080387
:102890001092070394E029C0811117C0E09106034C
:1028A00091E09E0F90930603F0E020910703309192
:1028B0000803EE0FFF1FEE5FFC4F30872783109257
:1028C00008031092070393E010C020910703309192
:1028D00008032536310558F007C0811108C0109251
:1028E00008031092070303C095E0909302039091B0
:1028F00005039923B9F081110AC08091040388234C
:1029000021F08091040361E009C02D9A0BC08091F1
:102910000403882331F08091040360E00E948D1746
:1029200001C02D98FF91EF91BF91AF919F918F9131
:102930007F916F915F914F913F912F910F900FBEBB
:102940000F901F9018951F920F920FB60F9211249F
:102950000F931F932F933F934F935F936F937F93A7
:102960008F939F93AF93BF93CF93EF93FF93C091B8
:102970004601C130E9F482E00E9464178C0183E0D3
:102980000E946417801791071CF4C093E7030CC0E2
:1029900082E00E9464178C0183E00E94641708178C
:1029A000190734F41092E703C093E803109246012C
:1029B000FF91EF91CF91BF91AF919F918F917F91B7
:1029C0006F915F914F913F912F911F910F910F90B8
:1029D0000FBE0F901F901895833081F028F481303E
:1029E00099F08230A1F008958730A9F08830B9F0CD
:1029F0008430D1F4809180008F7D03C0809180006D
:102A00008F7780938000089584B58F7702C084B556
:102A10008F7D84BD08958091B0008F7703C0809131
:102A2000B0008F7D8093B000089542E050E062E3F3
:102A300071E089E592E00C9497090F931F93CF936F
:102A4000DF938C01C0E0D0E0F801EC0FFD1F649132
:102A5000662341F089E592E00E942A0A892B11F051
:102A60002196F2CFCE01DF91CF911F910F91089562
:102A7000CF93DF930E941D15EC010E9415158C0F5A
:102A80009D1FDF91CF910895282F30915802313248
:102A900008F04AC0809134028111FCCF9091570216
:102AA00042E040933402209333022FEF209332020E
:102AB0001092310230933002E7E3F2E0A0E1B2E09D
:102AC00020E0321721F041914D932F5FFACF109201
:102AD0000F0220910F02990F922B90930F02909169
:102AE0000E02913061F410920E0290910F029093B9
:102AF000BB009091BC0093FDF8CF95EC01C095EE22
:102B00009093BC00909134029230E1F390913202A4
:102B10009F3F79F080913202803241F08091320201
:102B2000803331F084E005C081E003C082E001C061
:102B300083E01092360210925802109235020895E6
:102B40000F931F93CF93DF93C4EDD3E008EE13E010
:102B500025ED33E041E06AE388810E94DA0E898145
:102B6000DF91CF911F910F910895482F6EE68091CC
:102B7000D4030C94CA0E2F923F924F925F926F92A1
:102B80007F928F929F92AF92BF92CF92DF92EF92FD
:102B9000FF920F931F93CF93DF933C015B01342E81
:102BA000522E202E4F716DE68091D4030E94CA0EE2
:102BB000852D0E94B51580E190E00E9444216C01B2
:102BC000002331F080E190E00E9444217C0102C0AA
:102BD000E12CF12CC0E0D0E0CA15DB0508F06CC098
:102BE000CE014096A816B90618F44A2C4C1A02C019
:102BF00080E1482E842D90E020E031E02519310954
:102C00002817390714F4452C4194222071F0D7017C
:102C100080E090E0841560F4FE01E80FF91FE60DF6
:102C2000F71DE491ED930196F5CF7301EC0EFD1EB7
:102C30009701442D6FE68091D4030E94990E842C55
:102C4000912CC114D10419F1432D4F716DE680917F
:102C5000D4030E94CA0E852D0E94B51508EE13E01C
:102C60009601442D6FE68091D4030E94DA0EA401F0
:102C7000B601C7010E943023892B49F0C6010E948A
:102C8000DC21222011F1C7010E94DC211EC0C80DE9
:102C9000D91D540CCA15DB0508F09ECF511001C098
:102CA0003394432D4F716DE68091D4030E94CA0E78
:102CB000852D0E94B51590CFC6010E94DC212220EF
:102CC00031F0C7010E94DC2102C080E001C081E038
:102CD000DF91CF911F910F91FF90EF90DF90CF90F8
:102CE000BF90AF909F908F907F906F905F904F902C
:102CF0003F902F9008958F929F92AF92BF920F9323
:102D00001F93CF93DF93CDB7DEB7A1970FB6F8949B
:102D1000DEBF0FBECDBF19A2423008F44AE08E01DB
:102D20000F5D1F4F842E912CA12CB12CA501940175
:102D30000E94E920E62FB901CA0101501109EA30C9
:102D400014F4E05D01C0E95CD801EC93232B242B43
:102D5000252B61F70115110571F0F8010190002094
:102D6000E9F73197AF01401B510BB80189E592E0BB
:102D70000E94970902C080E090E0A1960FB6F894F7
:102D8000DEBF0FBECDBFDF91CF911F910F91BF90DE
:102D9000AF909F908F900895CF92DF92EF92FF9225
:102DA000CF93DF936B017C016DE289E592E00E9495
:102DB0002A0AEC0166277727CB016C197D098E0959
:102DC0009F094AE00E947B168C0F9D1FDF91CF91D7
:102DD000FF90EF90DF90CF900895CF93DF93682F0F
:102DE00070E080E090E040E10E947B16EC010E94E0
:102DF00015158C0F9D1FDF91CF910895BC01990F80
:102E0000880B990B97FD0C94CC164AE00C947B161A
:102E1000CF93DF93BC01990F880B990B97FF03C0E9
:102E20000E94CC1603C04AE00E947B16EC010E946F
:102E300015158C0F9D1FDF91CF910895EF92FF9292
:102E40000F931F93CF93DF931F92CDB7DEB77A0115
:102E500089019E012F5F3F4F41E00E94DA0E8823D7
:102E600039F029812E7730E035952795F7012083B9
:102E70000F90DF91CF911F910F91FF90EF900895E8
:102E8000CF93DF93EA0191E090933502809357024C
:102E9000109236021092580286EF92E00E94640B64
:102EA000698186EF92E00E94640B688186EF92E070
:102EB0000E94640B81E00E94441591E0811190E032
:102EC000892FDF91CF910895CF93DF93282F30E0A2
:102ED000F901EF53FD4E8491F901E355FD4ED49174
:102EE000F901E756FD4EC491CC2391F081110E9467
:102EF000EC14EC2FF0E0EE0FFF1FE157FD4EA59113
:102F0000B491EC91ED2381E090E021F480E002C0E7
:102F100080E090E0DF91CF9108951F93CF93DF93EE
:102F2000282F30E0F901EF53FD4E8491F901E3556C
:102F3000FD4ED491F901E756FD4EC491CC23C1F06A
:102F4000162F81110E94EC14EC2FF0E0EE0FFF1F02
:102F5000EB57FD4EA591B4919FB7F894111104C0A1
:102F60008C91D095D82302C0EC91DE2BDC939FBFCF
:102F7000DF91CF911F910895CF93DF9390E0FC01F3
:102F8000E355FD4E2491FC01E756FD4E84918823C4
:102F900061F190E0880F991FFC01E558FD4EC59145
:102FA000D491FC01EB57FD4EA591B491611109C07C
:102FB0009FB7F8948881209582238883EC912E23F3
:102FC0000BC0623061F49FB7F8948881322F30953E
:102FD00083238883EC912E2B2C939FBF06C08FB741
:102FE000F894E8812E2B28838FBFDF91CF9108952D
:102FF0008F929F92AF92BF92CF92DF92EF92FF9209
:103000006B017C010E9432184B015C01C114D10498
:10301000E104F104F1F00E943218DC01CB018819BF
:103020009909AA09BB09883E9340A105B10570F32F
:1030300021E0C21AD108E108F10888EE880E83E089
:10304000981EA11CB11CC114D104E104F10419F7AC
:10305000DDCFFF90EF90DF90CF90BF90AF909F902B
:103060008F9008953FB7F89480910A0490910B04D3
:10307000A0910C04B0910D0426B5A89B05C02F3F6C
:1030800019F00196A11DB11D3FBFBA2FA92F982F8E
:103090008827820F911DA11DB11DBC01CD0142E009
:1030A000660F771F881F991F4A95D1F708952FB78C
:1030B000F89460910604709107048091080490913F
:1030C00009042FBF08951F920F920FB60F9211247B
:1030D0002F933F938F939F93AF93BF938091060459
:1030E00090910704A0910804B0910904309105045F
:1030F00023E0230F2D3720F40196A11DB11D05C03B
:1031000026E8230F0296A11DB11D2093050480938C
:10311000060490930704A0930804B09309048091D7
:103120000A0490910B04A0910C04B0910D04019637
:10313000A11DB11D80930A0490930B04A0930C046D
:10314000B0930D04BF91AF919F918F913F912F91BB
:103150000F900FBE0F901F901895CF92DF92EF92B5
:10316000FF920F931F93E82FF92F05C0015011090B
:103170002109310961F1908196239417B9F305C0B3
:10318000015011092109310911F1908196239413FD
:10319000F7CFC12CD12CE12CF12C0AC08FEFC81A2B
:1031A000D80AE80AF80A0C151D052E053F0579F026
:1031B00080818623841791F36C2D7D2D8E2D9F2D7C
:1031C0001F910F91FF90EF90DF90CF90089560E0F6
:1031D00070E080E090E01F910F91FF90EF90DF9002
:1031E000CF900895CF93DF93CDB7DEB7C459D109FF
:1031F0000FB6F894DEBF0FBECDBF789484B5826061
:1032000084BD84B5816084BD85B5826085BD85B58A
:10321000816085BD80916E00816080936E00109208
:103220008100809181008260809381008091810083
:103230008160809381008091800081608093800014
:103240008091B10084608093B1008091B000816072
:103250008093B00080917A00846080937A0080919E
:103260007A00826080937A0080917A0081608093F6
:103270007A0080917A00806880937A001092C10071
:10328000E0916902F0916A0282E08083E091650238
:10329000F09166021082E0916702F091680283E388
:1032A000808310927102E0916D02F0916E0286E0CF
:1032B0008083E0916B02F0916C0280818061808359
:1032C000E0916B02F0916C02808188608083E091D4
:1032D0006B02F0916C02808180688083E0916B02C8
:1032E000F0916C0280818F7D808310920702109292
:1032F000060210923602109258021092340281E0B7
:103300008093330210920E0261E082E10E948D17D9
:1033100061E083E10E948D178091B9008E7F8093D8
:10332000B9008091B9008D7F8093B90088E48093C3
:10333000B80085E48093BC0085ED9AE09093050287
:103340008093040281EE9AE090930302809302023C
:1033500088E08093BA008CE08093B80085E69CE01A
:10336000909309028093080281EA9BE090930B02FC
:1033700080930A0201E023E042E06BE68091D403EF
:103380000E94E80F00E022E044E06BE18091D4036A
:103390000E94E80F22E044E06CE18091D4030E9497
:1033A000E80F20E046E06BE68091D4030E943610DF
:1033B00028EE33E045ED53E065E78091D4030E94A9
:1033C0001E178091D503843319F48DE592E102C074
:1033D00083E492E10E94381580E991E10E9438155A
:1033E00021E047E06BE68091D4030E9436106EE145
:1033F00070E080E090E00E94F81788E791E10E9479
:10340000381520E046E06BE68091D4030E94361028
:103410008EE591E10E94381540E76DE68091D40376
:103420000E94CA0E83E491E10E94381586E00E9452
:10343000B51585E291E10E9438158BE091E10E947B
:103440001D1508EE13E025ED33E041E06FE68091B5
:10345000D4030E94DA0E8091D5030E94ED1683EE0C
:1034600090E10E94381540E06DE68091D4030E94FF
:10347000CA0E84EC90E10E94381587EB90E10E941F
:103480001D159E012F5F3F4F41E060E08091D40306
:103490000E94DA0E898181708093D503882319F008
:1034A0008AE198E002C081E198E00E94381586E93F
:1034B00090E10E94381528EE33E045ED53E060E0DE
:1034C0008091D4030E941E177090D50328EE33E03C
:1034D00045ED53E061E08091D4030E941E17809077
:1034E000D50328EE33E045ED53E062E08091D4034C
:1034F0000E941E179090D50385E890E10E941D154B
:10350000872D072C000C990B0E94081784E790E187
:103510000E941D15882D082C000C990B0E9408177D
:1035200083E690E10E941D15892D092C000C990B52
:103530000E94081780E490E10E9438154FE765E289
:103540008091D4030E94CA0E83E290E10E94381554
:1035500020E045E06AE68091D4030E94361089EFAE
:103560009FE00E94381548E665E28091D4030E94EE
:10357000CA0E89ED9FE00E94381521E041E06AE61D
:103580008091D4030E94361064E170E080E090E006
:103590000E94F81782EB9FE00E941D1589E897E0D2
:1035A0000E94FE168AEA9FE00E94381501E020E0A2
:1035B00040E069E877E081E298E00E94BB1588234B
:1035C00009F485C389EE97E00E94381589EB97E0EE
:1035D0000E941D1580EC90E00E94FE1683EA97E0A1
:1035E0000E94381588E090E00E9444217C0100E0B0
:1035F00010E0F801ED51F94F6490F801EC51F94FEA
:103600005490580183E0A80EB11CF801EB51F94F1A
:10361000E491EE2309F4B1C0CE2ED12CE33028F092
:10362000B601C7010E9465227C01D70180E090E0CD
:103630008C159D0548F4F501E80FF91FED51F94F80
:10364000E491ED930196F4CF00E0252D462DB601CF
:10365000C7010E94BB1585010C0D1D1D882309F4AF
:103660009BC0003C110508F4C4CFC7010E94DC21B7
:1036700082EB96E00E94381580E996E00E943815AA
:1036800003E023E042E06BE68091D4030E94E80F60
:103690008FE596E00E94381542E168E38091D403FB
:1036A0000E94CA0E8FE396E00E94381544E069E15B
:1036B0008091D4030E94CA0E8FE096E00E943815D4
:1036C00001E023E045E06AE18091D4030E94E80F25
:1036D0008DEE95E00E94381503E023E042E06AE1B8
:1036E0008091D4030E94E80F8DEB95E00E9438157D
:1036F00022E044E06BE18091D4030E94E80F8AE964
:1037000095E00E94381543E060E78091D4030E9461
:10371000CA0E40E061E78091D4030E94CA0E80E89F
:1037200095E00E94381520E040E060E08091D403ED
:103730000E9436108CE495E00E943815072D26E093
:1037400046E060E08091D4030E94E80F082D26E057
:1037500046E061E08091D4030E94E80F092D26E045
:1037600046E062E08091D4030E94E80F86E195E094
:103770000E943815E12CF12C18C00C5F1F4FF50189
:10378000ED51F94FE491E13039F442E368E380917F
:10379000D4030E94CA0E65CFC7010E94DC218DE8C8
:1037A00090E00E94381512E097C2F701E951FB4FF3
:1037B000E491A1E8B0E0AC0FBD1FAE0DB11DEC93DC
:1037C00081E08E0D9FEFE91AF90A93E09E1568F7E4
:1037D000CD57DF4F6881C358D04070E09B012E5F0A
:1037E0003F4F90E02817390704F700E0CE57DF4F2E
:1037F0002881C258D040CF57DF4F4881C158D040B0
:1038000081E890E08C0F9D1F03960E94BB1581EB11
:1038100094E00E94381580E0F701E951FB4FE491F4
:10382000A1E8B0E0AC0FBD1FA80FB11DEC938F5FF6
:103830009FEFE91AF90A843078F3CD57DF4F68819A
:10384000C358D04070E0AB014E5F5F4F282F30E08F
:10385000421753070CF700E0CE57DF4F2881C258BC
:10386000D040CF57DF4F4881C158D04081E890E029
:103870008C0F9D1F03960E94BB158FE994E00E9458
:1038800038150E94611F89E894E00E9438150E9453
:103890008B1F182F092F85E794E00E941D15812F9B
:1038A000902F0E947B1F612FCE0101960E94681FFE
:1038B0008AE494E00E94381542E06FE18091D403DD
:1038C0000E94CA0E88E194E00E9438154CE961E23A
:1038D0008091D4030E94CA0E8DEE93E00E943815A9
:1038E00040E560E28091D4030E94CA0E8EEB93E023
:1038F0000E94381540E062E28091D4030E94CA0E13
:103900008CEA93E00E9438150E94611F8BE993E0D6
:103910000E94381521E046E06AE68091D4030E94B7
:1039200036108BE893E00E94381521E047E06AE604
:103930008091D4030E9436108AE793E00E943815E4
:1039400021E043E06AE68091D4030E94361084E4CB
:1039500093E00E94381580E0F701E951FB4FE491B4
:10396000A1E8B0E0AC0FBD1FA80FB11DEC938F5FB5
:103970009FEFE91AF90A843078F3CD57DF4F688159
:10398000C358D04070E0AB014E5F5F4F282F30E04E
:10399000421753070CF700E0CE57DF4F2881C2587B
:1039A000D040CF57DF4F4881C158D04081E890E0E8
:1039B0008C0F9D1F03960E94BB158EE093E00E9422
:1039C000381580E0F701E951FB4FE491A1E8B0E040
:1039D000AC0FBD1FA80FB11DEC938F5F9FEFE91ACD
:1039E000F90A843078F3CD57DF4F6881C358D0404F
:1039F00070E0AB014E5F5F4F282F30E04217530756
:103A00000CF700E0CE57DF4F2881C258D040CF5787
:103A1000DF4F4881C158D04081E890E08C0F9D1F56
:103A200003960E94BB1588ED92E00E94381580E055
:103A3000F701E951FB4FE491A1E8B0E0AC0FBD1FE5
:103A4000A80FB11DEC938F5F9FEFE91AF90A84303C
:103A500078F3CD57DF4F6881C358D04070E0AB0199
:103A60004E5F5F4F282F30E0421753070CF700E0FE
:103A7000CE57DF4F2881C258D040CF57DF4F488103
:103A8000C158D04081E890E08C0F9D1F03960E94A2
:103A9000BB158AEB92E00E9438150E948B1F8C01A7
:103AA0000397D8F386EA92E00E941D15C8010E9490
:103AB0007B1F81E992E00E943815602FCE010196AC
:103AC0000E94681F85E792E00E9438158BE592E01E
:103AD0000E941D150E94A0150E94ED1685E292E03D
:103AE0000E94381580E0F701E951FB4FE491A1E80D
:103AF000B0E0AC0FBD1FA80FB11DEC938F5F9FEF1F
:103B0000E91AF90A843078F3CD57DF4F3880C3586B
:103B1000D040A32CB12CA5014E5F5F4F282F30E081
:103B20004217530704F7CE57DF4F5880C258D04092
:103B3000CF57DF4F2880C158D040422D4F716DE6DE
:103B40008091D4030E94CA0E852D0E94B515C12C08
:103B5000D12C812C9924939421E8622E712C6C0E27
:103B60007D1E83E0680E711CCA14DB0498F5C60143
:103B70004096A816B90618F4432C4C1802C080E1F0
:103B8000482E842D90E09401251931092817390712
:103B900014F4452C419493012C0D3D1D08EE13E0C7
:103BA000442D6FE68091D4030E94DA0EC40CD11C20
:103BB000540CCA14DB04C0F6511001C02394422DEA
:103BC0004F716DE68091D4030E94CA0E852D0E942C
:103BD000B515CACF87E092E00E9438150E948B1F6E
:103BE0008C010397D8F383EF91E00E941D15C80163
:103BF0000E947B1F8EED91E00E943815602FCE0150
:103C000001960E94681F82EC91E00E94381588EAB4
:103C100091E00E941D150E94A0150E94ED1682E7FA
:103C200091E00E943815F701E951FB4F80E0949133
:103C3000A1E8B0E0AC0FBD1FA80FB11D9C938F5F32
:103C4000843070F0CD57DF4F6881C358D04070E0AA
:103C5000AB014E5F5F4F282F30E04217530714F03F
:103C60003196E5CF00E0CE57DF4F2881C258D040D3
:103C7000CF57DF4F4881C158D04081E890E08C0F8A
:103C80009D1F03960E94BB1586E591E00E943815A2
:103C90008EE291E00E94381520E047E06AE68091CC
:103CA000D4030E94361083EF90E00E9438158AE218
:103CB00090E09093E6038093E5038BEB90E00E9405
:103CC00038150E94611F0E94A01510E005C088E60B
:103CD00090E00E94381511E010930D028091D403FA
:103CE0002CED30E0CD56DF4F39832883C359D040C7
:103CF000AE014D565F4F63E10E9440178091D4039F
:103D00002CE430E0CF56DF4F39832883C159D040AF
:103D1000AE014F565F4F65E10E9440178091D4037A
:103D20002BEA3FEFCF57DF4F39832883C158D0406C
:103D3000AE014F575F4F67E10E9440178091D40357
:103D40002CEF36E03A832983AE014F5F5F4F6AE084
:103D50000E944017111128C083E392E10E94381598
:103D600021E047E06AE68091D4030E94361089EF93
:103D700091E10E941D1580E090E00E94FE1684EF04
:103D800091E10E9438158CEA9CE0909303018093A6
:103D9000020180916900836080936900E89A0E9423
:103DA000A0158AEC91E10DC089EA91E10E941D15F0
:103DB000612F70E080E090E04AE00E947B1687EA85
:103DC00091E10E943815549A5C9880910C028823E6
:103DD00029F00E94691010920C0202C00E94691022
:103DE0000E94990AF2CFE9E5F2E01382128288EE8E
:103DF00093E0A0E0B0E084839583A683B78322E1BB
:103E000031E03183208325EC30E03587248724ECB2
:103E100030E03787268720EC30E0318B208B21EC97
:103E200030E0338B228B22EC30E0358B248B26EC78
:103E300030E0378B268B118E128E138E148EE6EFA8
:103E4000F2E01382128284839583A683B78384E28F
:103E500091E09183808388E68093D403E5EFF3E0DB
:103E600080E090E0A0E8BFE380839183A283B383E6
:103E70001482158216821782108611861286138686
:103E80001486158616861786E9EEF3E010821182F5
:103E9000128213821482158216821782108611866E
:103EA00012861386E2E0F3E082E08183138284E0ED
:103EB000809368008BB381718BBB8CE080936D0025
:103EC000089521E042E06AE68091D4030C94361014
:103ED0000F931F93662351F0462F9C0108EE13E0C9
:103EE00064E78091D4030E94DA0E02C0FC011082C4
:103EF0001F910F910895CF93DF93BC0180E090E074
:103F00004AE00E947B16EC010E9415158C0F9D1F44
:103F1000DF91CF9108950F931F93CF93DF93C4ED5B
:103F2000D3E008EE13E025ED33E042E062E788815C
:103F30000E94DA0E89819A81982789279827DF9134
:103F4000CF911F910F9108950E94AB1F6894B111FA
:103F50000C943A2008950E941F2088F09F5798F0F3
:103F6000B92F9927B751B0F0E1F0660F771F881F7E
:103F7000991F1AF0BA95C9F714C0B13091F00E9498
:103F80003920B1E008950C943920672F782F8827C5
:103F9000B85F39F0B93FCCF3869577956795B395BF
:103FA000D9F73EF490958095709561957F4F8F4F2E
:103FB0009F4F0895E89409C097FB3EF49095809533
:103FC000709561957F4F8F4F9F4F9923A9F0F92FDF
:103FD00096E9BB279395F695879577956795B7955D
:103FE000F111F8CFFAF4BB0F11F460FF1BC06F5F43
:103FF0007F4F8F4F9F4F16C0882311F096E911C055
:10400000772321F09EE8872F762F05C0662371F075
:1040100096E8862F70E060E02AF09A95660F771F89
:10402000881FDAF7880F9695879597F9089557FDB9
:104030009058440F551F59F05F3F71F04795880F16
:1040400097FB991F61F09F3F79F0879508951216AD
:1040500013061406551FF2CF4695F1DF08C0161659
:1040600017061806991FF1CF86957105610508940A
:104070000895E894BB2766277727CB0197F9089521
:104080000E9453200C94C4200E94B62038F00E9455
:10409000BD2020F0952311F00C94AD200C94B3209A
:1040A00011240C943A200E94172070F3959FC1F3BD
:1040B000950F50E0551F629FF001729FBB27F00DD6
:1040C000B11D639FAA27F00DB11DAA1F649F66272B
:1040D000B00DA11D661F829F2227B00DA11D621F7A
:1040E000739FB00DA11D621F839FA00D611D221F34
:1040F000749F3327A00D611D231F849F600D211D18
:10410000822F762F6A2F11249F5750409AF0F1F09A
:1041100088234AF0EE0FFF1FBB1F661F771F881F03
:1041200091505040A9F79E3F510580F00C94AD206E
:104130000C943A205F3FE4F3983ED4F3869577954C
:104140006795B795F795E7959F5FC1F7FE2B880FA9
:10415000911D9695879597F9089597F99F6780E83F
:1041600070E060E008959FEF80EC089500240A94C9
:104170001616170618060906089500240A94121642
:104180001306140605060895092E0394000C11F475
:10419000882352F0BB0F40F4BF2B11F460FF04C022
:1041A0006F5F7F4F8F4F9F4F089597FB072E16F439
:1041B000009407D077FD09D00E942A2107FC05D082
:1041C0003EF4909581959F4F0895709561957F4F2E
:1041D0000895A1E21A2EAA1BBB1BFD010DC0AA1F48
:1041E000BB1FEE1FFF1FA217B307E407F50720F060
:1041F000A21BB30BE40BF50B661F771F881F991FDB
:104200001A9469F760957095809590959B01AC0123
:10421000BD01CF010895052E97FB1EF400940E9466
:10422000222157FD07D00E94E92007FC03D04EF45D
:104230000C94222150954095309521953F4F4F4F3A
:104240005F4F089590958095709561957F4F8F4F42
:104250009F4F0895AA1BBB1B51E107C0AA1FBB1F9C
:10426000A617B70710F0A61BB70B881F991F5A9502
:10427000A9F780959095BC01CD010895EE0FFF1F21
:104280000590F491E02D09940F931F93CF93DF9342
:104290008230910510F482E090E0E0911004F091FA
:1042A000110420E030E0A0E0B0E0309719F1408147
:1042B00051810281138148175907C8F08417950767
:1042C00069F4109731F012960C93129713961C9381
:1042D00027C0009310041093110422C0211531054A
:1042E00019F04217530718F49A01BD01EF01DF01DD
:1042F000F801DBCF21153105F9F0281B390B2430EB
:10430000310580F48A819B816115710521F0FB01E3
:104310009383828304C09093110480931004FE0160
:10432000329644C0FE01E20FF31F81939193225015
:104330003109398328833AC020910E0430910F044B
:10434000232B41F4209108013091090130930F048F
:1043500020930E04209106013091070121153105AB
:1043600041F42DB73EB740910A0150910B01241B37
:10437000350BE0910E04F0910F04E217F307A0F45F
:104380002E1B3F0B2817390778F0AC014E5F5F4FAB
:104390002417350748F04E0F5F1F50930F044093CA
:1043A0000E048193919302C0E0E0F0E0CF01DF9131
:1043B000CF911F910F910895CF93DF93009709F448
:1043C00081C0FC01329713821282A0911004B09137
:1043D0001104109781F420813181820F931F209165
:1043E0000E0430910F042817390751F5F0930F048C
:1043F000E0930E0467C0ED0120E030E0CE17DF0748
:1044000040F44A815B819E0141155105F1F0EA01BA
:10441000F5CFD383C28340815181840F951FC81784
:10442000D90759F488819981840F951F0296918349
:1044300080838A819B81938382832115310529F4AE
:10444000F0931104E09310043DC0E901FB83EA837B
:1044500049915991C40FD51FEC17FD0761F4808174
:104460009181840F951F0296E90199838883828147
:1044700093819B838A83E0E0F0E012968D919C917A
:104480001397009719F0FD01DC01F7CF8D919C91F6
:1044900011979D012E5F3F4F820F931F20910E04B5
:1044A00030910F042817390769F4309729F41092D6
:1044B00011041092100402C013821282B0930F04F0
:1044C000A0930E04DF91CF910895A0E0B0E0EBE659
:1044D000F2E20C944A23EC01009721F4CB010E94F4
:1044E0004421B4C0FC01E60FF71F9C0122503109A2
:1044F000E217F30708F4A8C0D9010D911C91119798
:1045000006171707B0F00530110508F49BC0C80165
:1045100004978617970708F495C002501109061BE7
:10452000170B019311936D937C93CF010E94DC21B3
:1045300089C05B01A01AB10A4C01800E911EA091A6
:104540001004B0911104612C712CE12CF12C109706
:1045500009F446C08D919C911197A815B905B1F544
:104560006C0142E0C40ED11CCA14DB0478F14C018A
:104570008A189B08640142E0C40ED11C1296BC90BC
:1045800012971396AC91B5E0CB16D10440F0B282ED
:10459000A38391828082D9016D937C9309C00E5FC1
:1045A0001F4F800F911FF90191838083EB2DFA2F0C
:1045B000E114F10431F0D7011396FC93EE931297B6
:1045C00041C0F0931104E09310043CC068167906D2
:1045D00008F43C017D0112960D90BC91A02DB7CF3F
:1045E00080910E0490910F0488169906E1F46616E6
:1045F0007706C8F48091060190910701009741F475
:104600008DB79EB740910A0150910B01841B950B09
:10461000E817F907C8F4F0930F04E0930E04F901CA
:10462000718360830FC0CB010E9444217C010097FD
:1046300059F0A801BE010E943D23CE010E94DC2159
:10464000C70104C0CE0102C080E090E0CDB7DEB764
:10465000EEE00C94662381E090E0F8940C947D23C6
:10466000FB01DC0104C08D910190801921F44150BF
:104670005040C8F7881B990B0895FB01DC0102C06C
:1046800001900D9241505040D8F708952F923F92DB
:104690004F925F926F927F928F929F92AF92BF9252
:1046A000CF92DF92EF92FF920F931F93CF93DF93FE
:1046B000CDB7DEB7CA1BDB0B0FB6F894DEBF0FBE5B
:1046C000CDBF09942A88398848885F846E847D84A8
:1046D0008C849B84AA84B984C884DF80EE80FD80AA
:1046E0000C811B81AA81B981CE0FD11D0FB6F89420
:0E46F000DEBF0FBECDBFED010895F894FFCFE1
:1046FE00020296099609000012048000E8030000E9
:10470E0000002A0A9709C109770AF209D009E409BB
:10471E0000000000640B370B940B0B0B2F0B1B0BC5
:06472E000C0B0D0A000057
:00000001FF
