:100000000C946C090C94EC0C0C94C50C0C94940995
:100010000C9494090C943C150C9494090C9482143F
:100020000C9494090C9494090C9494090C949409DC
:100030000C9494090C945B140C9494090C949409FA
:100040000C94FC180C9494090C94390D0C94130D19
:100050000C9494090C9494090C9494090C949409AC
:100060000C946B0D0C9494094552524F522120442C
:100070004D5020636F6465207665726966696361BF
:1000800074696F6E206661696C65642E004552521A
:100090004F522120444D5020636F6E666967757220
:1000A0006174696F6E2076657269666963617469EF
:1000B0006F6E206661696C65642E005265736574AD
:1000C00074696E67204649464F20616E6420636CF8
:1000D000656172696E6720494E542073746174754E
:1000E00073206F6E65206C6173742074696D652E6A
:1000F0002E2E0053657474696E6720757020696ECA
:100100007465726E616C2034322D627974652028BA
:1001100064656661756C742920444D50207061637C
:100120006B6574206275666665722E2E2E004469BA
:100130007361626C696E6720444D502028796F7539
:10014000207475726E206974206F6E206C61746506
:1001500072292E2E2E00444D5020697320676F6F38
:100160006420746F20676F212046696E616C6C7922
:100170002E0057726974696E672066696E616C2023
:100180006D656D6F72792075706461746520372FAD
:1001900037202866756E6374696F6E20756E6B6E9E
:1001A0006F776E292E2E2E0043757272656E742045
:1001B000696E74657272757074207374617475738E
:1001C0003D0052656164696E6720696E7465727284
:1001D000757074207374617475732E2E2E005265C1
:1001E0006164696E67204649464F20646174612EE0
:1001F0002E2E0043757272656E74204649464F205C
:10020000636F756E743D0057616974696E6720662F
:100210006F72204649464F20636F756E74203E20F2
:10022000322E2E2E0052656164696E672066696EFB
:10023000616C206D656D6F72792075706461746595
:1002400020362F37202866756E6374696F6E2075AF
:100250006E6B6E6F776E292E2E2E0043757272654F
:100260006E7420696E746572727570742073746137
:100270007475733D0052656164696E6720696E74C0
:10028000657272757074207374617475732E2E2E7E
:100290000052656164696E67204649464F2064617B
:1002A00074612E2E2E0043757272656E742046495D
:1002B000464F20636F756E743D0057616974696EB7
:1002C0006720666F72204649464F20636F756E74D3
:1002D000203E20322E2E2E0057726974696E6720E0
:1002E00066696E616C206D656D6F727920757064E2
:1002F00061746520352F37202866756E6374696FC9
:100300006E20756E6B6E6F776E292E2E2E005772D3
:100310006974696E672066696E616C206D656D6FCA
:1003200072792075706461746520342F37202866D7
:10033000756E6374696F6E20756E6B6E6F776E2964
:100340002E2E2E0057726974696E672066696E6181
:100350006C206D656D6F72792075706461746520B5
:10036000332F37202866756E6374696F6E20756E43
:100370006B6E6F776E292E2E2E0052657365747426
:10038000696E6720444D502E2E2E00456E61626CC2
:10039000696E6720444D502E2E2E00456E61626CB2
:1003A000696E67204649464F2E2E2E0052657365B2
:1003B0007474696E67204649464F2E2E2E00536591
:1003C0007474696E67207A65726F2D6D6F74696FD2
:1003D0006E20646574656374696F6E206475726104
:1003E00074696F6E20746F20302E2E2E005365744A
:1003F00074696E67206D6F74696F6E2064657465D3
:100400006374696F6E206475726174696F6E2074B5
:100410006F2038302E2E2E0053657474696E67205D
:100420007A65726F2D6D6F74696F6E206465746587
:100430006374696F6E207468726573686F6C642092
:10044000746F203135362E2E2E0053657474696E0C
:1004500067206D6F74696F6E20646574656374697D
:100460006F6E207468726573686F6C6420746F209F
:10047000322E2E2E0043757272656E7420464946E8
:100480004F20636F756E743D0052656164696E67DD
:10049000204649464F20636F756E742E2E2E0052F3
:1004A0006573657474696E67204649464F2E2E2E1B
:1004B0000057726974696E672066696E616C206DA1
:1004C000656D6F72792075706461746520322F37A5
:1004D000202866756E6374696F6E20756E6B6E6F23
:1004E000776E292E2E2E0001B202FFFF0190040923
:1004F00023A135016A020600016008000000000027
:1005000000000000600440000000016202000000E2
:1005100060040040000057726974696E6720666964
:100520006E616C206D656D6F727920757064617499
:100530006520312F37202866756E6374696F6E20D1
:10054000756E6B6E6F776E292E2E2E005365747448
:10055000696E6720582F592F5A206779726F206F64
:1005600066667365742054437320746F20707265DF
:1005700076696F75732076616C7565732E2E2E000B
:10058000436C656172696E67204F54502042616E02
:100590006B20666C61672E2E2E0053657474696E35
:1005A0006720444D502070726F6772616D6D2073CB
:1005B000746172742061646472657373005365744E
:1005C00074696E67206779726F2073656E736974E2
:1005D000697669747920746F202B2F2D203230308A
:1005E00030206465672F7365632E2E2E005365746B
:1005F00074696E6720444C50462062616E6477696E
:1006000064746820746F203432487A2E2E2E005382
:10061000657474696E672065787465726E616C20AC
:100620006672616D652073796E6320746F20544526
:100630004D505F4F55545F4C5B305D2E2E2E005356
:10064000657474696E672073616D706C652072618A
:10065000746520746F20323030487A2E2E2E00536D
:10066000657474696E6720444D5020616E64204645
:1006700049464F5F4F464C4F5720696E7465727202
:100680007570747320656E61626C65642E2E2E0029
:1006900053657474696E6720636C6F636B20736F4E
:1006A0007572636520746F205A204779726F2E2E01
:1006B0002E00537563636573732120444D5020638E
:1006C0006F6E66696775726174696F6E20777269A3
:1006D0007474656E20616E64207665726966696502
:1006E000642E00037B034CCD6C03AB0336567600BF
:1006F000680402CB47A202180400058BC1010C0458
:1007000000000000037F060CC92C9797970389030C
:10071000264666006C022000024004000000000231
:1007200044040000000002480400000000024C04E1
:100730000000000002500400000000025404000009
:10074000000002580400000000025C0400000000E9
:1007500002BC040000000001EC0400004000037F24
:10076000060CC92C9797970402030D355D04090404
:10077000872D353D00A3010000000001078601FE22
:10078000074105F120283038077E01300746019ADD
:10079000074704F1283038076C04F1283038021676
:1007A00002000120627974657320696E20636F6EA8
:1007B00066696720646566290057726974696E67A7
:1007C00020444D5020636F6E66696775726174696D
:1007D0006F6E20746F204D5055206D656D6F72796E
:1007E0002062616E6B7320280053756363657373B9
:1007F0002120444D5020636F6465207772697474C2
:10080000656E20616E642076657269666965642E26
:1008100000696E76616C6964210076616C6964219F
:1008200000FB00003E000B00360001000200030048
:100830000000650054FFEF0000FA80000B128200F8
:1008400001000200000000000000000000000000A5
:100850000000280000FFFF4581FFFFFA7200000042
:1008600000000003E80000000100017FFFFFFE80A0
:1008700001001B000000000000000000000000005C
:1008800000003E03304000000002CAE3093E800041
:100890000020000000000000004000000060000098
:1008A0000041FF000000000B2A0000165500002147
:1008B00082FD872650FD800000001F00000005809B
:1008C0000000000000000100000002000000030022
:1008D00000400000000000046F0002653200005E6E
:1008E000C040000000000000000000000000000008
:1008F00000FB8C6F5DFD5D08D9007C733B006C12C2
:10090000CC3200139D3200D0D632000800400001E6
:10091000F4FFE68079020000000000D0D600002736
:1009200010FB00000040000000000000000000007C
:1009300000000000010000000000000100010000B4
:10094000000000FA36FFBC308E0005FBF0FFD95BDB
:10095000C8FFD09ABE000010A9FFF41EB200CEBBA3
:10096000F700000001000000040002000202000085
:100970000CFFC280000001800000CF80004000001A
:100980000000000001000000000000060000000060
:100990001400000000000000000000000000000043
:1009A0000000000000000000000000000000000047
:1009B0000000000000000000000000000000000037
:1009C0000000000000033F68B6793528BCC67ED120
:1009D0006C80000000400000000000B26A000000CF
:1009E00000000000000000000000003FF0000000D8
:1009F00030000000000000000000000000000000C7
:100A000000000000000000000000000000000000E6
:100A1000000000254D002F706D000005AE000C0297
:100A2000D00000000000650054FFEF00000000004F
:100A300000000001000044000000000C0000000164
:100A400000000000000065000000540000FFEF00FF
:100A50000000000000000000000000000000000096
:100A60000040000000000000000000000000000046
:100A70000040000000000000000000000000000036
:100A80000000000001000000020000000000000063
:100A90000000000000000000000000000000000056
:100AA0000000000000000000000000000000000046
:100AB00000001B000000000000000000000000001B
:100AC0000000000000000000000000000000000026
:100AD00000000000000000000000000000400000D6
:100AE00000001B00000000000000000000000000EB
:100AF00000000000000000000000000000000000F6
:100B000000000000000000000000000000000000E5
:100B100000000000000000000000000000000000D5
:100B200000D8DCBAA2F1DEB2B8B4A88191F74A903D
:100B30007F916AF3F9DBA8F9B0BAA080F2CE81F315
:100B4000C2F1C1F2C3F3CCA2B280F1C6D880BAA779
:100B5000DFDFDFF2A7C3CBC5B6F087A294244870CD
:100B60003C95406834589B78A2F183922D557DD8EE
:100B7000B1B4B8A1D09180F270F370F27C80A8F18A
:100B800001B09887D943D886C988BAA1F20EB89720
:100B900080F1A9DFDFDFAADFDFDFF2AAC5CDC7A9B9
:100BA0000CC92C97979797F1A989264666B0B4BAD5
:100BB00080ACDEF2CAF1B28C02A9B69800890E169A
:100BC0001EB8A9B4992C547CB08AA896365676F1F2
:100BD000B9AFB4B083C0B8A89711B18F98B9AFF0CE
:100BE000240844106418F1A329557DAF83B593AF51
:100BF000F0002850F1A3869F61A6DADEDFD9FAA3C0
:100C00008696DB31A6D9F8DFBAA68FC2C5C7B28CEB
:100C1000C1B8A2DFDFDFA3DFDFDFD8D8F1B8A8B229
:100C200086B4980D355DB8AA98B0872D353DB2B61B
:100C3000BAAF8C96198F9FA70E161EB49AB8AA87C2
:100C40002C547CB9A3DEDFDFA3B180F2C4CDC9F19F
:100C5000B8A9B499830D355D89B9A32D557DB59398
:100C6000A30E161EA92C547CB8B4B0F19783A8111A
:100C700084A50998A383F0DA240844106418D8F1F5
:100C8000A529557DA58595021A2E3A565A4048F950
:100C9000F3A3D9F8F098832408441064189782A825
:100CA000F111F098A2240844106418DAF3DED88316
:100CB000A59401D9A302F1A2C3C5C7D8F18492A219
:100CC0004DDA2AD84869D92AD86855DA32D850710D
:100CD000D932D8705DDA3AD85879D93AD87893A30E
:100CE0004DDA2AD84869D92AD86855DA32D85071ED
:100CF000D932D8705DDA3AD85879D93AD878A88AF2
:100D00009AF02850789EF38818F19F1D98A8D9086A
:100D1000D8C89F129EF315A8DA1210D8F1AFC89761
:100D20008734B5B994A421F3D922D8F22DF3D92A66
:100D3000D8F235F3D932D881A4606061D961D86C1A
:100D40006869D969D8747071D971D8B1A384193D13
:100D50005DA3831A3E5E931030811011B8B0AF8F3F
:100D600094F2DA3ED8B49AA88729DAF8D8879A3567
:100D7000DAF8D8879A3DDAF8D8B1B9A49885022E66
:100D800056A581000C14A397B08AF12DD928D84D0F
:100D9000D948D86DD968D8B1840DDA0ED8A3298383
:100DA000DA2C0ED8A3844983DA2C4C0ED8B8B0A81C
:100DB0008A9AF520AADADFD8A840AAD0DADED8A825
:100DC00060AADAD0DFD8F19786A8319B069907ABE5
:100DD0009728889BF00C201440B8B0B4A88C9CF0E5
:100DE000042851791D301438B282ABD0982C505061
:100DF00078789BF11AB0F08A9CA82951798B2951F7
:100E0000798A2470598B2058718A4469388B39400B
:100E1000688A6448318B304960A58820097158443C
:100E200068113964493019F1AC002C547CF08CA85D
:100E300004285078F1889726A85998AC8C02264649
:100E400066F0899CA829517924705944693864480E
:100E500031A98809205970AB11384069A819314867
:100E6000608CA83C415C207C00F187981986A86EB4
:100E7000767EA999882D557D9EB9A38A228A6E8A8D
:100E8000568A5E9FB183062646660E2E4E6E9DB82C
:100E9000AD002C547CF2B18CB499B9A32D557D8151
:100EA00091AC38AD3AB58391AC2DD928D84DD948FD
:100EB000D86DD968D88C9DAE29D904AED851D90443
:100EC000AED879D904D881F39DAD008DAE1981AD2E
:100ED000D901D8F2AEDA26D88E912983A7D9ADAD43
:100EE000ADADF32AD8D8F1B0AC89913E5E76F3ACC3
:100EF0002E2EF1B18C5A9CAC2C2828289CAC301892
:100F0000A8988128343C9724A728343C9C24F2B02C
:100F100089AC912C4C6C8A9B2DD9D8D851D9D8D872
:100F200079D9D8D8F19E88A331DAD8D8912DD9288B
:100F3000D84DD948D86DD968D8B18393353D80252F
:100F4000DAD8D88569DAD8D8B49381A328343CF3A9
:100F5000AB8BF8A391B609B4D9ABDEFAB0879CB9D4
:100F6000A3DDF1A3A3A3A395F1A3A3A39DF1A3A341
:100F7000A3A3F2A3B49080F2A3A3A3A3A3A3A3A3C8
:100F8000A3A3B2A3A3A3A3A3A3B087B599F1A3A3DB
:100F9000A398F1A3A3A3A397A3A3A3A3F39BA3A3A2
:100FA000DCB9A7F1262626D8D8FF206279746573AC
:100FB000290057726974696E6720444D5020636F31
:100FC000646520746F204D5055206D656D6F72798A
:100FD0002062616E6B7320280052657365747469BA
:100FE0006E6720493243204D617374657220636FD0
:100FF0006E74726F6C2E2E2E0053657474696E675A
:1010000020736C617665203020616464726573734F
:1010100020746F2030783638202873656C66292E4E
:101020002E2E0044697361626C696E6720493243F9
:10103000204D6173746572206D6F64652E2E2E00D5
:1010400053657474696E6720736C61766520302017
:101050006164647265737320746F20307837462E34
:101060002E2E005A206779726F206F666673657442
:10107000203D200059206779726F206F6666736586
:1010800074203D200058206779726F206F66667368
:101090006574203D200052656164696E6720677940
:1010A000726F206F66667365742054432076616C9E
:1010B0007565732E2E2E004F54502062616E6B208A
:1010C0006973200052656164696E67204F54502037
:1010D00062616E6B2076616C696420666C61672E5C
:1010E0002E2E00526573657474696E67206D656D90
:1010F0006F72792062616E6B2073656C65637469D1
:101100006F6E20746F20302E2E2E0052657669731C
:10111000696F6E204020757365725B31365D5B369A
:101120005D203D2000436865636B696E67206861E0
:10113000726477617265207265766973696F6E2E6D
:101140002E2E0053656C656374696E67206D656D46
:101150006F7279206279746520362E2E2E005365C9
:101160006C656374696E6720757365722062616E69
:101170006B2031362E2E2E0044697361626C696ECD
:101180006720736C656570206D6F64652E2E2E0070
:101190000A0A526573657474696E67204D5055363E
:1011A0003035302E2E2E002900444D5020496E69D6
:1011B0007469616C697A6174696F6E206661696CCB
:1011C00065642028636F64652000444D502072657B
:1011D000616479212057616974696E6720666F7256
:1011E00020666972737420696E74657272757074AA
:1011F0002E2E2E00292E2E2E00456E61626C696EF9
:101200006720696E746572727570742064657465A8
:101210006374696F6E202841726475696E6F206512
:10122000787465726E616C20696E74657272757027
:10123000742000456E61626C696E6720444D502ECB
:101240002E2E004D50553630353020636F6E6E6552
:101250006374696F6E206661696C6564004D5055FA
:101260003630353020636F6E6E656374696F6E2043
:101270007375636365737366756C0000000000240A
:101280000027002A0000000000250028002B000095
:1012900000000023002600290004040404040404C0
:1012A0000402020202020203030303030301020415
:1012B00008102040800102040810200102040810D8
:1012C00020000000080002010000030407000000E5
:1012D000000000000000961F11241FBECFEFD8E0D1
:1012E000DEBFCDBF11E0A0E0B1E0E4E4F8E402C06D
:1012F00005900D92A633B107D9F724E0A6E3B1E03B
:1013000001C01D92A635B207E1F719E0CCE6D9E09D
:1013100004C02197FE010E94E121CB36D107C9F715
:101320000E948B190C9420240C9400000895CF92F5
:10133000DF92EF92FF920F931F93CF93DF936C0195
:101340007A018B01C0E0D0E0CE15DF0581F0D80135
:101350006D918D01D601ED91FC910190F081E02D10
:10136000C6010995892B11F02196EECF7E01C701A8
:10137000DF91CF911F910F91FF90EF90DF90CF9071
:101380000895FC01538D448D252F30E0842F90E08B
:10139000821B930B541710F0CF9608950197089570
:1013A000FC01918D828D981761F0828DDF01A80F6D
:1013B000B11D5D968C91928D9F5F9F73928F90E08F
:1013C00008958FEF9FEF0895FC01918D828D9817FE
:1013D00031F0828DE80FF11D858D90E008958FEF3B
:1013E0009FEF0895FC01918D228D892F90E0805C04
:1013F0009F4F821B91098F73992708958DE992E081
:101400000E94F20921E0892B09F420E0822F08953F
:10141000FC01848DDF01A80FB11DA35ABF4F2C9191
:10142000848D90E001968F739927848FA689B78960
:101430002C93A089B1898C91837080648C93938D57
:10144000848D981306C00288F389E02D80818F7DFA
:1014500080830895EF92FF920F931F93CF93DF93B2
:10146000EC0181E0888F9B8D8C8D981305C0E889F5
:10147000F989808185FD26C0F62E0B8D10E00F5F67
:101480001F4F0F731127E02E8C8DE8120CC00FB682
:1014900007FCFACFE889F989808185FFF5CFCE0175
:1014A0000E94080AF1CF8B8DFE01E80FF11DE35A6F
:1014B000FF4FF0829FB7F8940B8FEA89FB898081F8
:1014C00080620AC09FB7F894EE89FF896083E8893B
:1014D000F98980818370806480839FBF81E090E080
:1014E000DF91CF911F910F91FF90EF900895CF93CF
:1014F000DF93EC01888D8823C9F0EA89FB8980811C
:1015000085FD05C0A889B9898C9186FD0FC00FB6ED
:1015100007FCF5CF808185FFF2CFA889B9898C912E
:1015200085FFEDCFCE010E94080AE7CFDF91CF9172
:10153000089580E090E0892B29F00E94FE09811136
:101540000C940000089585ED8093BC008091BC0050
:1015500084FDFCCF10927802089540912102262F3D
:1015600030E0240F311D21323105DCF42091780266
:101570002430C9F4FC0180E090E0861758F43091E3
:1015800021022191DC01AF5FBD4FA30FB11D2C9350
:101590000196F3CF80912102680F6093210280E0D1
:1015A000089581E0089582E00895E0914C02F09161
:1015B0004D02309729F010927A0210929C02099401
:1015C0000895CF93DF93EC01E0914A02F0914B0232
:1015D0003097F1F090914902809148029817C0F03D
:1015E00090E0292F30E02617370754F4DE01A20FD0
:1015F000B31F4C91D901AF51BE4F4C939F5FF1CFB8
:101600001092490260934802CB01DF91CF91099477
:10161000DF91CF9108950895E091490280914802A9
:10162000E81730F4F0E0EF51FE4F808190E008952C
:101630008FEF9FEF0895909149028091480298178B
:1016400050F4E92FF0E0EF51FE4F208130E09F5F32
:101650009093490202C02FEF3FEFC9010895809196
:10166000480290E020914902821B91090895CF928F
:10167000DF92EF92FF920F931F93CF93DF937C0142
:10168000CB018A0120917902222389F0EB016B01C1
:10169000C40ED51ECC15DD0569F06991D701ED9119
:1016A000FC910190F081E02DC7010995F3CF642FE3
:1016B0000E94AD0AC801DF91CF911F910F91FF9059
:1016C000EF90DF90CF900895CF93DF931F92CDB727
:1016D000DEB76983209179022223D1F020919C0208
:1016E000203240F021E030E0FC013383228380E0AF
:1016F00090E015C080917A02E82FF0E0E558FD4FA8
:10170000998190838F5F80937A0280939C0205C0B9
:1017100061E0CE0101960E94AD0A81E090E00F9059
:10172000DF91CF910895089580E090E00895809131
:10173000DF019091E00101969093E0018093DF0139
:101740000895809150028111A8C08091DA01813002
:1017500041F442E050E065EC71E08AE393E00E94DE
:10176000370B8091DA01833009F49CC08091DA0153
:10177000873009F497C08091DA01883309F492C068
:101780008091DA01883009F496C08091DA018431C1
:1017900009F491C08091DA018E3141F449E050E0C2
:1017A00065EC71E08AE393E00E94370B8091DA01E7
:1017B000883241F449E050E060EB71E08AE393E065
:1017C0000E94370B8091DA01803651F445E050E0F9
:1017D00065EC71E08AE393E00E94370B1092C5013B
:1017E0008091DA01853151F448E050E065EC71E018
:1017F0008AE393E00E94370B1092C5018091DA01D1
:10180000883141F442E050E065EC71E08AE393E016
:101810000E94370B8091DA018A3071F445E050E084
:1018200065EC71E08AE393E00E94370B1092AF0100
:101830001092AE011092DA018091DA01863051F4F3
:1018400043E050E065EC71E08AE393E00E94370BDF
:101850001092DA018091DA018B3071F443E050E0AC
:101860006BEA71E08AE393E00E94370B1092AC01BF
:101870001092AB011092DA018091DA018C3021F5DF
:1018800043E050E068EA71E08AE393E00E94370B9E
:101890001092A8011092DA01089567E18AE393E0BB
:1018A0000C94640B43E050E065EC71E08AE393E054
:1018B0000E94370B65CF44E050E065EC71E08AE3AD
:1018C00093E00E94370B66CF08950F931F93CF9339
:1018D000DF938091500281112FC001E010E08091D0
:1018E000480220914902821719F190E0821B910968
:1018F000049761F41092A7011092A6011092A5011D
:101900001092A4011093A3010093A201C091A4011D
:10191000D091A501CE0101969093A5018093A401D9
:101920008AE393E00E941B0BC652DE4F8883D7CF19
:1019300081E0809350020BC090914802809149024F
:10194000981729F08AE393E00E941B0BF5CFDF91F3
:10195000CF911F910F91089581E0809347010895E1
:101960000E94CE23CF93DF9382E00E94FD17EC010B
:1019700083E00E94FD178C239D23019719F481E0D9
:1019800080934601DF91CF9108951F920F920FB679
:101990000F9211242F933F934F935F936F937F93F5
:1019A0008F939F93AF93BF93EF93FF93E0910401C5
:1019B000F09105010995FF91EF91BF91AF919F9132
:1019C0008F917F916F915F914F913F912F910F90E8
:1019D0000FBE0F901F9018951F920F920FB60F9287
:1019E00011242F933F934F935F936F937F938F9324
:1019F0009F93AF93BF93EF93FF93E0910201F09118
:101A000003010995FF91EF91BF91AF919F918F9144
:101A10007F916F915F914F913F912F910F900FBEEA
:101A20000F901F9018951F920F920FB60F921124CE
:101A30002F933F934F935F936F937F938F939F93D6
:101A4000AF93BF93EF93FF938DE992E00E94080A52
:101A5000FF91EF91BF91AF919F918F917F916F9186
:101A60005F914F913F912F910F900FBE0F901F905C
:101A700018951F920F920FB60F9211242F938F93E8
:101A80009F93EF93FF93E091AD02F091AE028081BE
:101A9000E091B302F091B40282FD12C09081809176
:101AA000B6028F5F8F732091B702821751F0E091D9
:101AB000B602F0E0E356FD4F958F8093B60201C069
:101AC0008081FF91EF919F918F912F910F900FBE89
:101AD0000F901F9018951F920F920FB60F9211241E
:101AE0002F933F934F935F936F937F938F939F9326
:101AF000AF93BF93EF93FF938091B900887F8036B7
:101B000009F49CC068F5883209F45BC090F4803118
:101B100009F454C038F4882309F4F6C0883009F475
:101B20004DC0F6C0883109F44CC0803209F45DC064
:101B3000EFC0803409F468C048F4803309F455C01C
:101B4000883309F0E5C080937602D8C0803509F467
:101B50004FC0883509F45DC0883409F0D9C0D6C0BB
:101B6000883909F4C7C0A8F4883709F467C038F485
:101B7000883609F463C0803709F460C0C9C088386A
:101B800009F4B8C0803909F45FC0803809F0C0C0DA
:101B90005BC0803B09F486C038F4803A09F466C023
:101BA000883A09F47FC0B4C0803C09F4A7C0883CDF
:101BB00009F4A4C0883B09F48AC0AAC080915302EA
:101BC00010C09091750280917402981770F5E091A1
:101BD000750281E08E0F80937502F0E0EC5AFD4FA4
:101BE00080818093BB0085EC86C0809376028EC096
:101BF000E091750281E08E0F809375028091BB00A9
:101C0000F0E0EC5AFD4F8083909175028091740250
:101C10006EC0E091750281E08E0F80937502809115
:101C2000BB00F0E0EC5AFD4F808380917702811178
:101C30006DC081E08093520284EA61C083E08093AA
:101C4000780210924302CFCF80914302803208F095
:101C500051C0E091430281E08E0F80934302809156
:101C6000BB00F0E0ED5DFD4F8083BDCF85EC809340
:101C7000BC001092780280914302803230F4E091EF
:101C80004302F0E0ED5DFD4F10826091430270E091
:101C9000E0914402F091450283E292E009951092AE
:101CA000430236C084E080937802109222021092A0
:101CB0002102E0914602F0914702099580912102AC
:101CC000811105C081E08093210210920102E09110
:101CD000220281E08E0F80932202F0E0EF5FFD4F41
:101CE00080818093BB0090912202809121029817FD
:101CF00008F479CF85E88093BC000AC085EC809316
:101D0000BC001092780204C0109276020E94A30ACE
:101D1000FF91EF91BF91AF919F918F917F916F91C3
:101D20005F914F913F912F910F900FBE0F901F9099
:101D30001895FF920F931F93CF93DF93142FF22EDA
:101D4000032F91E09093790280939B0210927A0284
:101D500010929C028AE393E00E94640BCF2DD02F57
:101D6000CE01810F911D8C01C017D10731F069910F
:101D70008AE393E00E94640BF7CF81E00E94DD15B7
:101D800091E0811190E0892FDF91CF911F910F9108
:101D9000FF900895CF93DF931F92CDB7DEB74983AD
:101DA0009E012F5F3F4F41E00E94990E0F90DF91FF
:101DB000CF9108952F923F924F925F926F927F92B0
:101DC0008F929F92AF92BF92CF92DF92EF92FF924B
:101DD0000F931F93CF93DF93CDB7DEB728970FB63E
:101DE000F894DEBF0FBECDBFD82EC62E4F8349015B
:101DF0000E94F0182B013C012D2C220CE12C18869E
:101E0000FF24F3942F81A22EB12C33243A94C801DD
:101E1000A0E0B0E08B839C83AD83BE839F81E916F5
:101E200008F084C0F0927902D0929B0210927A025C
:101E300010929C026C2D8AE393E00E94640B81E077
:101E40000E94DD15F0927902D0929B0210927A02E4
:101E500010929C02809178028111FCCFC5018E19ED
:101E600091098132910514F080E290E0813208F00E
:101E700080E2F0927802F09277023092760210922D
:101E800075029FEF980F90937402F0925302909115
:101E9000530292299093530290915202913071F41F
:101EA00010925202909153029093BB009091BC000B
:101EB00093FDF8CFA5ECA093BC0003C0B5EEB093A2
:101EC000BC00909178029130E1F3909175029817DF
:101ED00010F480917502E4E5F2E0A1EEB1E090E04B
:101EE000981721F021912D939F5FFACF109249020C
:101EF000909348029091480280914902981709F402
:101F000047C00115110589F10E94F018DC01CB01D1
:101F100084199509A609B7092B813C814D815E8101
:101F200082179307A407B50700F132C00115110508
:101F3000A9F10E94F018DC01CB0184199509A609CA
:101F4000B70920E030E080179107A207B30730F10E
:101F50004F81242F30E05885852F550F990B82171C
:101F60009307E4F48FEF888719C0D401E885AE0F9A
:101F7000B11DE7FDBA95BA83A9838AE393E00E9475
:101F80001B0BA981BA818C93B885BF5FB887B2CF8C
:101F90008F81813208F080E2E80E40CF8885289654
:101FA0000FB6F894DEBF0FBECDBFDF91CF911F916A
:101FB0000F91FF90EF90DF90CF90BF90AF909F90E8
:101FC0008F907F906F905F904F903F902F900895EB
:101FD000CF92DF92EF92FF920F931F93CF93DF93F5
:101FE0001F92CDB7DEB7F82EE62ED42EC22E08EE05
:101FF00013E09E012F5F3F4F41E00E94DA0E89817E
:1020000041E050E001C0440FDA94EAF7CC2011F02F
:10201000482B02C04095482349836E2D8F2D0E9486
:10202000CA0E0F90DF91CF911F910F91FF90EF900B
:10203000DF90CF900895BF92CF92DF92EF92FF9200
:102040000F931F93CF93DF931F92CDB7DEB7F82E78
:10205000E62EC42EB22ED02E08EE13E09E012F5F86
:102060003F4F41E00E94DA0E882339F12C2D30E0F9
:102070002B1931092F5F3F4F81E090E002C0880F9C
:10208000991FBA94E2F70197022E01C0880F0A94B3
:10209000EAF74D2D50E0BA0102C0660F771F2A956E
:1020A000E2F7482F4095998149238623482B49839D
:1020B0006E2D8F2D0E94CA0E01C080E00F90DF911F
:1020C000CF911F910F91FF90EF90DF90CF90BF9035
:1020D0000895CF92DF92EF92FF920F931F93CF93C9
:1020E000DF9300D000D0CDB7DEB78091A4019091EE
:1020F000A5010497D9F48091A6019091A701892B9D
:10210000A9F481E090E09093A7018093A6018091CB
:10211000DA01813009F087C08091DA018093C5012E
:102120008091DB010E94FD178093C60180919A0186
:1021300090919B01892B59F180913C04813039F5B4
:1021400020913B048091920190919301213049F4B8
:1021500001968931910554F01092930110929201E9
:1021600009C0019797FF02C088E190E09093930126
:10217000809392018091DA018093AB0181E080939A
:10218000AC01809192018093AD0110923C0480914A
:10219000940190919501892B09F480C30E94F01855
:1021A0000091960110919701209198013091990129
:1021B000DC01CB01801B910BA20BB30B813D97403F
:1021C000A105B10508F46AC38091DF019091E00197
:1021D0004EE1489F9001499F300D112481E080938A
:1021E000A801C90169E470E00E947821CB0160E098
:1021F00071E00E9478218093A901C90160E079E42F
:102200000E9478216093AA011092E0011092DF01F0
:102210000E94F01860939601709397018093980143
:10222000909399013BC38091DA01823029F4609147
:10223000DC018091DB0142C08091DA01833051F5ED
:102240008091DB018E3008F08E508770806480931F
:102250007C0080917A00806480937A0080917A007B
:1022600086FDFCCF809178002091790090E0922B40
:102270002091DA012093C5019C0197FF02C02150F3
:102280003F4F3093C60160E071E00E947821809357
:10229000C7014CCF8091DA01843009F05EC0009113
:1022A000DC01E02EF12C1091DB0161E0812F0E9416
:1022B0005518E114F10429F460E0812F0E942618DA
:1022C00035CF2FEFE216F10409F445C0E12FF0E01D
:1022D000EF53FD4EE491E330F9F048F4E130B9F00A
:1022E000E230A1F584B5806284BD08BD1FCFE73020
:1022F000E9F0E83019F1E43049F58091800080621E
:1023000080938000F0928B00E0928A000FCF84B51A
:10231000806884BD07BD0ACF80918000806880936B
:102320008000F0928900E092880000CF8091B00098
:1023300080688093B0000093B300F8CE8091B00025
:1023400080628093B0000093B400F0CE80E8E8167D
:10235000F1040CF4B1CF61E0B0CF8091DA018530A7
:1023600039F46091DC018091DB010E945518DECECA
:102370008091DA01873009F076C00091DB0161E0DD
:10238000802F0E9455181091DC0160E0812F0E947F
:10239000551860E0802F0E94261883E090E0019796
:1023A000F1F761E0802F0E94261883E290E0019708
:1023B000F1F760E0802F0E942618812F90E0FC0149
:1023C000E355FD4E6491FC01E756FD4EE491F0E0CB
:1023D000EE0FFF1FE157FD4E8591949100E412E44A
:1023E0002FE030E0462F0E944619611571058105E6
:1023F000910539F0DC01CB010196A11DB11DBF7023
:1024000003C080E090E0DC0180939C0190939D01EB
:10241000A0939E01B0939F0160919C0170919D01DA
:1024200080919E0190919F010E947D2026E933E4D6
:102430004BE05DE30E94E32020E030E040E05FE31A
:102440000E94E3200E9447202091DA012093C501D9
:1024500020E031E040E050E00E94AE212093C60130
:102460006093C70163CE8091DA01883061F4809176
:10247000DA018093C50182E08093C6011092C70102
:102480001092C80153CE8091DA01883209F44ECE01
:102490008091DA01823309F449CE8091DA018333E5
:1024A00009F444CE8091DA01843309F43FCE80915F
:1024B000DA01853309F43ACE8091DA01863309F4E2
:1024C00035CE8091DA01873309F430CE8091DA017C
:1024D000883309F42BCE8091DA01863409F426CEB4
:1024E0008091DA01873409F421CE8091DA018834B1
:1024F00009F41CCE8091DA01893409F417CE809159
:10250000DA018A3409F412CE8091DA018B3409F4AD
:102510000DCE8091DA018C3409F408CE8091DA0175
:102520008D3409F403CE8091DA018E3409F4FECDA6
:102530008091DA018F3409F4F9CD8091DA018A357E
:1025400009F4F4CD8091DA018B3509F4EFCD809157
:10255000DA018C3509F4EACD8091DA018D3509F480
:10256000E5CD8091DA018E3509F4E0CD8091DA0174
:102570008F3509F4DBCD8091DA01803609F0B2C0E5
:102580008AE999E9A1E2B1E489839A83AB83BC83A8
:1025900000918A0110918B0160914E0270914F025F
:1025A0000617170738F40E942E2090938B01809312
:1025B0008A01EECF8AE491E00E940B2080914E02C6
:1025C00090914F02081B190B10938B0100938A0105
:1025D000C0904E01D0904F01DC24CD24DC24E0904B
:1025E0005201F0905301FE24EF24FE240091560185
:1025F0001091570110270127102760914A0170910F
:102600004B01762767277627072E000C880B990B3E
:102610000E947F2020E030E040E858E30E94E32061
:10262000609318047093190480931A0490931B0408
:10263000B601DD0C880B990B0E947F2020E030E072
:1026400040E858E30E94E32060931C0470931D044B
:1026500080931E0490931F04B701FF0C880B990B05
:102660000E947F2020E030E040E858E30E94E32011
:102670006093200470932104809322049093230498
:10268000B801110F880B990B0E947F2020E030E0E9
:1026900040E858E30E94E3206093240470932504EB
:1026A00080932604909327048DEC9CECA4E2B1EC7B
:1026B00089839A83AB83BC838091DA018093C501BF
:1026C000FE01319681E090E02191DC01AB53BE4FD9
:1026D0002C93019685309105B9F790934901809329
:1026E000480124CD8091DA018E3009F41FCD80910C
:1026F000DA018F3009F41ACD8091DA01893009F4BA
:1027000015CD8091DA01863009F410CD8091DA017F
:102710008A3009F40BCD8091DA018031C9F510922D
:1027200080008093810021E020938E018FB78093F9
:102730008F01F89480E49FE190938D0180938C0148
:10274000909387008093860080918F018FBF809146
:102750008100887F809381009091810080918E011B
:10276000982B9093810042EB5CE050939101409351
:10277000900120936F0090918100892B80938100BC
:10278000789481E090E090939B0180939A016AC0D5
:102790008091DA01813151F480916F008E7F8093B6
:1027A0006F0010929B0110929A01C0CC8091DA01C7
:1027B0008231F1F51091DB0110930101123021F00B
:1027C000133021F481E003C080E001C08FEF60E0AE
:1027D0000E945518123019F01330A9F453C080E04C
:1027E000E82FF0E0EE0FFF1FEE5FFE4F27E93BE022
:1027F00031832083813009F447C080916900836070
:1028000080936900E89A1092E0011092DF010E9423
:10281000F0186093960170939701809398019093BC
:10282000990181E090E090939501809394011AC002
:102830008091DA018D30C9F41092950110929401C3
:1028400080910101823019F0833061F424C0E8984E
:10285000E0E0F0E0EE0FFF1FEE5FFE4F86E999E04B
:10286000918380831092DA0161CC8091DA01863104
:1028700009F45CCC8091DA01853109F457CC809160
:10288000DA0154CC81E0ACCF809169008C608093F8
:102890006900E99AB8CFE998E1E0DBCF0F900F909B
:1028A0000F900F90DF91CF911F910F91FF90EF90BC
:1028B000DF90CF9008951F920F920FB60F921124C0
:1028C0002F933F934F935F936F937F938F939F9338
:1028D000AF93BF93EF93FF93E0919001F09191013B
:1028E0000995FF91EF91BF91AF919F918F917F914A
:1028F0006F915F914F913F912F910F900FBE0F906D
:102900001F9018951F920F920FB60F9211242F93BC
:102910003F934F935F936F937F938F939F93AF9367
:10292000BF93EF93FF93809147030E94FD1720917F
:102930004B0330914C032F5F3F4F30934C03209358
:102940004B0390914A03953618F096E09093460316
:10295000909146039430C9F128F4923069F0933095
:10296000D1F05EC0953009F451C0963009F058C0DE
:1029700091E09093170451C0811152C020914B03F4
:1029800030914C032436310508F442C010921704EC
:1029900010924A031CC0813009F042C0E0914A0302
:1029A00091E09E0F90934A03F0E020914B03309109
:1029B0004C03EE0FFF1FEA5BFC4F3087278310921A
:1029C0004C0310924B0394E029C0811117C0E09191
:1029D0004A0391E09E0F90934A03F0E020914B034D
:1029E00030914C03EE0FFF1FEA5BFC4F30872783CB
:1029F00010924C0310924B0393E010C020914B03B4
:102A000030914C032536310558F007C0811108C0BC
:102A100010924C0310924B0303C095E09093460331
:102A2000909149039923B9F081110AC0809148031C
:102A3000882321F08091480361E009C02D9A0BC0E2
:102A400080914803882331F08091480360E00E9420
:102A5000261801C02D98FF91EF91BF91AF919F91E2
:102A60008F917F916F915F914F913F912F910F9037
:102A70000FBE0F901F9018951F920F920FB60F92D6
:102A800011240F931F932F933F934F935F936F9353
:102A90007F938F939F93AF93BF93CF93EF93FF93C6
:102AA000C0914601C130E9F482E00E94FD178C011B
:102AB00083E00E94FD17801791071CF4C0933B042C
:102AC0000CC082E00E94FD178C0183E00E94FD177C
:102AD0000817190734F410923B04C0933C04109279
:102AE0004601FF91EF91CF91BF91AF919F918F914F
:102AF0007F916F915F914F913F912F911F910F9116
:102B00000F900FBE0F901F901895833081F028F41E
:102B1000813099F08230A1F008958730A9F0883093
:102B2000B9F08430D1F4809180008F7D03C0809112
:102B300080008F7780938000089584B58F7702C0DE
:102B400084B58F7D84BD08958091B0008F7703C0D8
:102B50008091B0008F7D8093B000089542E050E0F6
:102B600062E371E08DE992E00C9497090F931F9353
:102B7000CF93DF938C01C0E0D0E0F801EC0FFD1F94
:102B80006491662341F08DE992E00E942A0A892B24
:102B900011F02196F2CFCE01DF91CF911F910F91CD
:102BA0000895CF93DF930E94B615EC010E94AE15F5
:102BB0008C0F9D1FDF91CF910895282F30919C029B
:102BC000313208F04AC0809178028111FCCF909197
:102BD0009B0242E040937802209377022FEF2093EC
:102BE00076021092750230937402EBE7F2E0A4E5EE
:102BF000B2E020E0321721F041914D932F5FFACFE0
:102C00001092530220915302990F922B90935302EA
:102C100090915202913061F41092520290915302BD
:102C20009093BB009091BC0093FDF8CF95EC01C050
:102C300095EE9093BC00909178029230E1F39091E0
:102C400076029F3F79F080917602803241F0809148
:102C50007602803331F084E005C081E003C082E079
:102C600001C083E010927A0210929C0210927902C5
:102C700008950F931F93CF93DF93C8E2D4E008EE3B
:102C800013E029E234E041E06AE388810E94DA0E31
:102C90008981DF91CF911F910F910895482F6EE6A2
:102CA000809128040C94CA0E2F923F924F925F920B
:102CB0006F927F928F929F92AF92BF92CF92DF924C
:102CC000EF92FF920F931F93CF93DF933C015B0131
:102CD000342E522E202E4F716DE6809128040E94D2
:102CE000CA0E852D0E944E1680E190E00E94E721D9
:102CF0006C01002331F080E190E00E94E7217C012B
:102D000002C0E12CF12CC0E0D0E0CA15DB0508F0D0
:102D10006CC0CE014096A816B90618F44A2C4C1A7D
:102D200002C080E1482E842D90E020E031E025199A
:102D300031092817390714F4452C4194222071F0E9
:102D4000D70180E090E0841560F4FE01E80FF91FE0
:102D5000E60DF71DE491ED930196F5CF7301EC0EAE
:102D6000FD1E9701442D6FE6809128040E94990E64
:102D7000842C912CC114D10419F1432D4F716DE6AF
:102D8000809128040E94CA0E852D0E944E1608EEDE
:102D900013E09601442D6FE6809128040E94DA0E1C
:102DA000A401B601C7010E94D323892B49F0C601B3
:102DB0000E947F22222011F1C7010E947F221EC0A3
:102DC000C80DD91D540CCA15DB0508F09ECF511053
:102DD00001C03394432D4F716DE6809128040E9409
:102DE000CA0E852D0E944E1690CFC6010E947F22EA
:102DF000222031F0C7010E947F2202C080E001C082
:102E000081E0DF91CF911F910F91FF90EF90DF90C4
:102E1000CF90BF90AF909F908F907F906F905F907A
:102E20004F903F902F9008958F929F92AF92BF92B4
:102E30000F931F93CF93DF93CDB7DEB7A1970FB654
:102E4000F894DEBF0FBECDBF19A2423008F44AE0AD
:102E50008E010F5D1F4F842E912CA12CB12CA5014A
:102E600094010E948C21E62FB901CA010150110979
:102E7000EA3014F4E05D01C0E95CD801EC93232B47
:102E8000242B252B61F70115110571F0F801019034
:102E90000020E9F73197AF01401B510BB8018DE9D4
:102EA00092E00E94970902C080E090E0A1960FB6E0
:102EB000F894DEBF0FBECDBFDF91CF911F910F9170
:102EC000BF90AF909F908F900895CF92DF92EF9236
:102ED000FF92CF93DF936B017C016DE28DE992E06D
:102EE0000E942A0AEC0166277727CB016C197D091D
:102EF0008E099F094AE00E9414178C0F9D1FDF91D5
:102F0000CF91FF90EF90DF90CF900895CF93DF9314
:102F1000682F70E080E090E040E10E941417EC011F
:102F20000E94AE158C0F9D1FDF91CF910895BC01BB
:102F3000990F880B990B97FD0C9465174AE00C9438
:102F40001417CF93DF93BC01990F880B990B97FF50
:102F500003C00E94651703C04AE00E941417EC01E9
:102F60000E94AE158C0F9D1FDF91CF910895EF92B7
:102F7000FF920F931F93CF93DF931F92CDB7DEB7CE
:102F80007A0189019E012F5F3F4F41E00E94DA0ED6
:102F9000882339F029812E7730E035952795F70180
:102FA00020830F90DF91CF911F910F91FF90EF90B1
:102FB0000895CF93DF93EA0191E090937902809393
:102FC0009B0210927A0210929C028AE393E00E9484
:102FD000640B69818AE393E00E94640B68818AE351
:102FE00093E00E94640B81E00E94DD1591E0811165
:102FF00090E0892FDF91CF910895CF93DF93282F11
:1030000030E0F901EF53FD4E8491F901E355FD4E97
:10301000D491F901E756FD4EC491CC2391F0811172
:103020000E948515EC2FF0E0EE0FFF1FE157FD4EDB
:10303000A591B491EC91ED2381E090E021F480E042
:1030400002C080E090E0DF91CF9108951F93CF936D
:10305000DF93282F30E0F901EF53FD4E8491F90101
:10306000E355FD4ED491F901E756FD4EC491CC23B2
:10307000C1F0162F81110E948515EC2FF0E0EE0FA4
:10308000FF1FEB57FD4EA591B4919FB7F894111116
:1030900004C08C91D095D82302C0EC91DE2BDC9338
:1030A0009FBFDF91CF911F910895CF93DF9390E061
:1030B000FC01E355FD4E2491FC01E756FD4E849141
:1030C000882361F190E0880F991FFC01E558FD4EBF
:1030D000C591D491FC01EB57FD4EA591B4916111BE
:1030E00009C09FB7F8948881209582238883EC914A
:1030F0002E230BC0623061F49FB7F8948881322F81
:10310000309583238883EC912E2B2C939FBF06C090
:103110008FB7F894E8812E2B28838FBFDF91CF9152
:1031200008958F929F92AF92BF92CF92DF92EF92CB
:10313000FF926B017C010E94CB184B015C01C11412
:10314000D104E104F104F1F00E94CB18DC01CB01C1
:1031500088199909AA09BB09883E9340A105B105C0
:1031600070F321E0C21AD108E108F10888EE880E58
:1031700083E0981EA11CB11CC114D104E104F10428
:1031800019F7DDCFFF90EF90DF90CF90BF90AF9019
:103190009F908F9008953FB7F89480914E0490913E
:1031A0004F04A0915004B091510426B5A89B05C0CE
:1031B0002F3F19F00196A11DB11D3FBFBA2FA92FB6
:1031C000982F8827820F911DA11DB11DBC01CD0133
:1031D00042E0660F771F881F991F4A95D1F708951F
:1031E0002FB7F89460914A0470914B0480914C047D
:1031F00090914D042FBF08951F920F920FB60F921A
:1032000011242F933F938F939F93AF93BF938091FC
:103210004A0490914B04A0914C04B0914D0430911C
:10322000490423E0230F2D3720F40196A11DB11D81
:1032300005C026E8230F0296A11DB11D2093490465
:1032400080934A0490934B04A0934C04B0934D0494
:1032500080914E0490914F04A0915004B09151047C
:103260000196A11DB11D80934E0490934F04A0932D
:103270005004B0935104BF91AF919F918F913F91B2
:103280002F910F900FBE0F901F901895CF92DF9245
:10329000EF92FF920F931F93E82FF92F05C0015073
:1032A00011092109310961F1908196239417B9F32D
:1032B00005C0015011092109310911F190819623AE
:1032C0009413F7CFC12CD12CE12CF12C0AC08FEF35
:1032D000C81AD80AE80AF80A0C151D052E053F057C
:1032E00079F080818623841791F36C2D7D2D8E2DAE
:1032F0009F2D1F910F91FF90EF90DF90CF90089539
:1033000060E070E080E090E01F910F91FF90EF90FF
:10331000DF90CF900895CF93DF93CDB7DEB7C45938
:10332000D1090FB6F894DEBF0FBECDBF789484B537
:10333000826084BD84B5816084BD85B5826085BDB1
:1033400085B5816085BD80916E00816080936E003F
:103350001092810080918100826080938100809131
:1033600081008160809381008091800081608093E2
:1033700080008091B10084608093B1008091B000A2
:1033800081608093B00080917A00846080937A009D
:1033900080917A00826080937A0080917A008160C7
:1033A00080937A0080917A00806880937A001092EE
:1033B000C100E091AD02F091AE0282E08083E09125
:1033C000A902F091AA021082E091AB02F091AC0246
:1033D00083E380831092B502E091B102F091B202D2
:1033E00086E08083E091AF02F091B002808180613D
:1033F0008083E091AF02F091B00280818860808389
:10340000E091AF02F091B002808180688083E0910A
:10341000AF02F091B00280818F7D808310924902CB
:103420001092480210927A0210929C021092780236
:1034300081E0809377021092520261E082E10E9463
:10344000261861E083E10E9426188091B9008E7FE2
:103450008093B9008091B9008D7F8093B90088E492
:103460008093B80085E48093BC0085ED9AE090934A
:1034700047028093460281EE9AE090934502809342
:10348000440288E08093BA008CE08093B80085E61F
:103490009CE090934B0280934A0281EA9BE09093D8
:1034A0004D0280934C0201E023E042E06BE6809104
:1034B00028040E941B1000E022E044E06BE18091B0
:1034C00028040E941B1022E044E06CE18091280453
:1034D0000E941B1020E046E06BE6809128040E94C9
:1034E000E80F28EE33E049E254E065E780912804D4
:1034F0000E94B71780912904843319F48DE592E175
:1035000002C083E492E10E94D11580E991E10E941A
:10351000D11521E047E06BE6809128040E94E80F76
:103520006EE170E080E090E00E94911888E791E100
:103530000E94D11520E046E06BE6809128040E94AD
:10354000E80F8EE591E10E94D11540E76DE680918C
:1035500028040E94CA0E83E491E10E94D11586E0FE
:103560000E944E1685E291E10E94D1158BE091E117
:103570000E94B61508EE13E029E234E041E06FE660
:10358000809128040E94DA0E809129040E948617F7
:1035900083EE90E10E94D11540E06DE68091280411
:1035A0000E94CA0E84EC90E10E94D11587EB90E155
:1035B0000E94B6159E012F5F3F4F41E060E0809171
:1035C00028040E94DA0E898181708093290488235F
:1035D00019F08AE198E002C081E198E00E94D115DB
:1035E00086E990E10E94D11528EE33E049E254E0EB
:1035F00060E0809128040E94B7177090290428EE9B
:1036000033E049E254E061E0809128040E94B7175A
:103610008090290428EE33E049E254E062E0809192
:1036200028040E94B7179090290485E890E10E9431
:10363000B615872D072C000C990B0E94A11784E763
:1036400090E10E94B615882D082C000C990B0E9461
:10365000A11783E690E10E94B615892D092C000C74
:10366000990B0E94A11780E490E10E94D1154FE7C9
:1036700065E2809128040E94CA0E83E290E10E94D4
:10368000D11520E045E06AE6809128040E94E80F09
:1036900089EF9FE00E94D11548E665E280912804F9
:1036A0000E94CA0E89ED9FE00E94D11521E041E001
:1036B0006AE6809128040E94E80F64E170E080E0EF
:1036C00090E00E94911882EB9FE00E94B61589E875
:1036D00097E00E9497178AEA9FE00E94D11501E0C7
:1036E00020E040E069E877E081E298E00E9454162B
:1036F000882309F485C389EE97E00E94D11589EBF0
:1037000097E00E94B61580EC90E00E94971783EA3C
:1037100097E00E94D11588E090E00E94E7217C01AB
:1037200000E010E0F801ED51F94F6490F801EC5120
:10373000F94F5490580183E0A80EB11CF801EB51E9
:10374000F94FE491EE2309F4B1C0CE2ED12CE33031
:1037500028F0B601C7010E9408237C01D70180E050
:1037600090E08C159D0548F4F501E80FF91FED5127
:10377000F94FE491ED930196F4CF00E0252D462D0D
:10378000B601C7010E94541685010C0D1D1D88232A
:1037900009F49BC0003C110508F4C4CFC7010E9486
:1037A0007F2282EB96E00E94D11580E996E00E948C
:1037B000D11503E023E042E06BE6809128040E94EB
:1037C0001B108FE596E00E94D11542E168E38091DD
:1037D00028040E94CA0E8FE396E00E94D11544E0AF
:1037E00069E1809128040E94CA0E8FE096E00E9451
:1037F000D11501E023E045E06AE1809128040E94B0
:103800001B108DEE95E00E94D11503E023E042E00D
:103810006AE1809128040E941B108DEB95E00E94C4
:10382000D11522E044E06BE1809128040E941B1036
:103830008AE995E00E94D11543E060E78091280471
:103840000E94CA0E40E061E7809128040E94CA0EDF
:1038500080E895E00E94D11520E040E060E0809192
:1038600028040E94E80F8CE495E00E94D115072DF2
:1038700026E046E060E0809128040E941B10082D9D
:1038800026E046E061E0809128040E941B10092D8B
:1038900026E046E062E0809128040E941B1086E149
:1038A00095E00E94D115E12CF12C18C00C5F1F4F40
:1038B000F501ED51F94FE491E13039F442E368E369
:1038C000809128040E94CA0E65CFC7010E947F2202
:1038D0008DE890E00E94D11512E097C2F701E951FE
:1038E000FB4FE491A1E8B0E0AC0FBD1FAE0DB11DE0
:1038F000EC9381E08E0D9FEFE91AF90A93E09E1593
:1039000068F7CD57DF4F6881C358D04070E09B0106
:103910002E5F3F4F90E02817390704F700E0CE579D
:10392000DF4F2881C258D040CF57DF4F4881C15860
:10393000D04081E890E08C0F9D1F03960E945416A2
:1039400081EB94E00E94D11580E0F701E951FB4F33
:10395000E491A1E8B0E0AC0FBD1FA80FB11DEC933E
:103960008F5F9FEFE91AF90A843078F3CD57DF4F64
:103970006881C358D04070E0AB014E5F5F4F282F85
:1039800030E0421753070CF700E0CE57DF4F288195
:10399000C258D040CF57DF4F4881C158D04081E84E
:1039A00090E08C0F9D1F03960E9454168FE994E0BF
:1039B0000E94D1150E94042089E894E00E94D1154C
:1039C0000E942E20182F092F85E794E00E94B6153B
:1039D000812F902F0E941E20612FCE0101960E9400
:1039E0000B208AE494E00E94D11542E06FE18091BF
:1039F00028040E94CA0E88E194E00E94D1154CE987
:103A000061E2809128040E94CA0E8DEE93E00E942C
:103A1000D11540E560E2809128040E94CA0E8EEB29
:103A200093E00E94D11540E062E2809128040E9458
:103A3000CA0E8CEA93E00E94D1150E9404208BE903
:103A400093E00E94D11521E046E06AE680912804C7
:103A50000E94E80F8BE893E00E94D11521E047E037
:103A60006AE6809128040E94E80F8AE793E00E94AA
:103A7000D11521E043E06AE6809128040E94E80F16
:103A800084E493E00E94D11580E0F701E951FB4FF7
:103A9000E491A1E8B0E0AC0FBD1FA80FB11DEC93FD
:103AA0008F5F9FEFE91AF90A843078F3CD57DF4F23
:103AB0006881C358D04070E0AB014E5F5F4F282F44
:103AC00030E0421753070CF700E0CE57DF4F288154
:103AD000C258D040CF57DF4F4881C158D04081E80D
:103AE00090E08C0F9D1F03960E9454168EE093E089
:103AF0000E94D11580E0F701E951FB4FE491A1E864
:103B0000B0E0AC0FBD1FA80FB11DEC938F5F9FEF0E
:103B1000E91AF90A843078F3CD57DF4F6881C3582A
:103B2000D04070E0AB014E5F5F4F282F30E042176E
:103B300053070CF700E0CE57DF4F2881C258D04022
:103B4000CF57DF4F4881C158D04081E890E08C0FBB
:103B50009D1F03960E94541688ED92E00E94D11595
:103B600080E0F701E951FB4FE491A1E8B0E0AC0F30
:103B7000BD1FA80FB11DEC938F5F9FEFE91AF90AE3
:103B8000843078F3CD57DF4F6881C358D04070E060
:103B9000AB014E5F5F4F282F30E0421753070CF701
:103BA00000E0CE57DF4F2881C258D040CF57DF4FBB
:103BB0004881C158D04081E890E08C0F9D1F03964A
:103BC0000E9454168AEB92E00E94D1150E942E208A
:103BD0008C010397D8F386EA92E00E94B615C801DB
:103BE0000E941E2081E992E00E94D115602FCE0133
:103BF00001960E940B2085E792E00E94D1158BE58B
:103C000092E00E94B6150E9439160E94861785E23E
:103C100092E00E94D11580E0F701E951FB4FE49159
:103C2000A1E8B0E0AC0FBD1FA80FB11DEC938F5FF2
:103C30009FEFE91AF90A843078F3CD57DF4F3880C7
:103C4000C358D040A32CB12CA5014E5F5F4F282F45
:103C500030E04217530704F7CE57DF4F5880C25861
:103C6000D040CF57DF4F2880C158D040422D4F71F0
:103C70006DE6809128040E94CA0E852D0E944E1682
:103C8000C12CD12C812C9924939421E8622E712C83
:103C90006C0E7D1E83E0680E711CCA14DB0498F55F
:103CA000C6014096A816B90618F4432C4C1802C059
:103CB00080E1482E842D90E09401251931092817C0
:103CC000390714F4452C419493012C0D3D1D08EE49
:103CD00013E0442D6FE6809128040E94DA0EC40C94
:103CE000D11C540CCA14DB04C0F6511001C023943B
:103CF000422D4F716DE6809128040E94CA0E852DD9
:103D00000E944E16CACF87E092E00E94D1150E9411
:103D10002E208C010397D8F383EF91E00E94B61513
:103D2000C8010E941E208EED91E00E94D115602FE7
:103D3000CE0101960E940B2082EC91E00E94D115E9
:103D400088EA91E00E94B6150E9439160E948617F3
:103D500082E791E00E94D115F701E951FB4F80E025
:103D60009491A1E8B0E0AC0FBD1FA80FB11D9C93CA
:103D70008F5F843070F0CD57DF4F6881C358D040DB
:103D800070E0AB014E5F5F4F282F30E042175307C2
:103D900014F03196E5CF00E0CE57DF4F2881C258AE
:103DA000D040CF57DF4F4881C158D04081E890E0E4
:103DB0008C0F9D1F03960E94541686E591E00E9489
:103DC000D1158EE291E00E94D11520E047E06AE62D
:103DD000809128040E94E80F83EF90E00E94D115A3
:103DE0008AE290E090933A04809339048BEB90E060
:103DF0000E94D1150E9404200E94391610E005C0CF
:103E000088E690E00E94D11511E010935102809154
:103E100028042CED30E0CD56DF4F39832883C35979
:103E2000D040AE014D565F4F63E10E94D91780919B
:103E300028042CE430E0CF56DF4F39832883C15962
:103E4000D040AE014F565F4F65E10E94D917809177
:103E500028042BEA3FEFCF57DF4F39832883C1581F
:103E6000D040AE014F575F4F67E10E94D917809154
:103E700028042CEF36E03A832983AE014F5F5F4F71
:103E80006AE00E94D917111132C083E392E10E94C7
:103E9000D11521E047E06AE6809128040E94E80FEE
:103EA00089EF91E10E94B61580E090E00E9497179B
:103EB00084EF91E10E94D1158CEA9CE0909303017C
:103EC0008093020180916900836080936900E89A81
:103ED0000E9439168AEC91E10E94D1158091390433
:103EE00090913A0490934F0280934E020FC089EA5A
:103EF00091E10E94B615612F70E080E090E04AE009
:103F00000E94141787EA91E10E94D115549A5C9897
:103F100080915002882329F00E946910109250026B
:103F200002C00E9469100E94990AF2CFEDE9F2E006
:103F30001382128288EE93E0A0E0B0E08483958340
:103F4000A683B78322E131E03183208325EC30E082
:103F50003587248724EC30E03787268720EC30E053
:103F6000318B208B21EC30E0338B228B22EC30E044
:103F7000358B248B26EC30E0378B268B118E128EFE
:103F8000138E148EEAE3F3E0138212828483958306
:103F9000A683B78384E291E09183808388E680934F
:103FA0002804E8E1F4E080E090E0A0E8BFE380834B
:103FB0009183A283B383148215821682178210869E
:103FC0001186128613861486158616861786EDE3EB
:103FD000F4E01082118212821382148215821682FA
:103FE00017821086118612861386E6E4F3E082E0DB
:103FF0008183138284E0809368008BB381718BBBD3
:104000008CE080936D00089521E042E06AE68091A3
:1040100028040C94E80F0F931F93662351F0462F4A
:104020009C0108EE13E064E7809128040E94DA0EF8
:1040300002C0FC0110821F910F910895CF93DF936E
:10404000BC0180E090E04AE00E941417EC010E945D
:10405000AE158C0F9D1FDF91CF9108950F931F9385
:10406000CF93DF93C8E2D4E008EE13E029E234E016
:1040700042E062E788810E94DA0E89819A8198275E
:1040800089279827DF91CF911F910F9108950E9462
:104090004E206894B1110C94DD2008950E94C22036
:1040A00088F09F5798F0B92F9927B751B0F0E1F0F9
:1040B000660F771F881F991F1AF0BA95C9F714C0A9
:1040C000B13091F00E94DC20B1E008950C94DC2026
:1040D000672F782F8827B85F39F0B93FCCF38695E2
:1040E00077956795B395D9F73EF49095809570953F
:1040F00061957F4F8F4F9F4F0895E89409C097FBBC
:104100003EF490958095709561957F4F8F4F9F4FAE
:104110009923A9F0F92F96E9BB279395F6958795F2
:1041200077956795B795F111F8CFFAF4BB0F11F4B5
:1041300060FF1BC06F5F7F4F8F4F9F4F16C088235C
:1041400011F096E911C0772321F09EE8872F762F92
:1041500005C0662371F096E8862F70E060E02AF0D3
:104160009A95660F771F881FDAF7880F96958795BF
:1041700097F9089557FD9058440F551F59F05F3F28
:1041800071F04795880F97FB991F61F09F3F79F079
:1041900087950895121613061406551FF2CF4695FB
:1041A000F1DF08C0161617061806991FF1CF86957D
:1041B0007105610508940895E894BB276627772761
:1041C000CB0197F908950E94F6200C9467210E9474
:1041D000592138F00E94602120F0952311F00C94B1
:1041E00050210C94562111240C94DD200E94BA20F9
:1041F00070F3959FC1F3950F50E0551F629FF0013A
:10420000729FBB27F00DB11D639FAA27F00DB11D52
:10421000AA1F649F6627B00DA11D661F829F2227DB
:10422000B00DA11D621F739FB00DA11D621F839F62
:10423000A00D611D221F749F3327A00D611D231F38
:10424000849F600D211D822F762F6A2F11249F5786
:1042500050409AF0F1F088234AF0EE0FFF1FBB1F89
:10426000661F771F881F91505040A9F79E3F510548
:1042700080F00C9450210C94DD205F3FE4F3983ED5
:10428000D4F3869577956795B795F795E7959F5FF2
:10429000C1F7FE2B880F911D9695879597F9089584
:1042A00097F99F6780E870E060E008959FEF80ECE9
:1042B000089500240A94161617061806090608958C
:1042C00000240A9412161306140605060895092EF2
:1042D0000394000C11F4882352F0BB0F40F4BF2B61
:1042E00011F460FF04C06F5F7F4F8F4F9F4F0895A1
:1042F00097FB072E16F4009407D077FD09D00E9493
:10430000CD2107FC05D03EF4909581959F4F0895EF
:10431000709561957F4F0895A1E21A2EAA1BBB1BD1
:10432000FD010DC0AA1FBB1FEE1FFF1FA217B30781
:10433000E407F50720F0A21BB30BE40BF50B661F97
:10434000771F881F991F1A9469F76095709580955B
:1043500090959B01AC01BD01CF010895052E97FBFF
:104360001EF400940E94C52157FD07D00E948C21A5
:1043700007FC03D04EF40C94C52150954095309520
:1043800021953F4F4F4F5F4F0895909580957095C1
:1043900061957F4F8F4F9F4F0895AA1BBB1B51E123
:1043A00007C0AA1FBB1FA617B70710F0A61BB70BA5
:1043B000881F991F5A95A9F780959095BC01CD014A
:1043C0000895EE0FFF1F0590F491E02D09940F93CF
:1043D0001F93CF93DF938230910510F482E090E039
:1043E000E0915404F091550420E030E0A0E0B0E00A
:1043F000309719F140815181028113814817590783
:10440000C8F08417950769F4109731F012960C9351
:10441000129713961C9327C00093540410935504CD
:1044200022C02115310519F04217530718F49A01DB
:10443000BD01EF01DF01F801DBCF21153105F9F0F6
:10444000281B390B2430310580F48A819B8161154A
:10445000710521F0FB019383828304C0909355047E
:1044600080935404FE01329644C0FE01E20FF31F14
:104470008193919322503109398328833AC0209146
:10448000520430915304232B41F4209108013091C0
:104490000901309353042093520420910601309176
:1044A00007012115310541F42DB73EB740910A01AE
:1044B00050910B01241B350BE0915204F0915304F1
:1044C000E217F307A0F42E1B3F0B2817390778F0EB
:1044D000AC014E5F5F4F2417350748F04E0F5F1F4A
:1044E00050935304409352048193919302C0E0E0AF
:1044F000F0E0CF01DF91CF911F910F910895CF93FD
:10450000DF93009709F481C0FC0132971382128275
:10451000A0915404B0915504109781F42081318109
:10452000820F931F209152043091530428173907AA
:1045300051F5F0935304E093520467C0ED0120E07D
:1045400030E0CE17DF0740F44A815B819E014115C0
:104550005105F1F0EA01F5CFD383C2834081518147
:10456000840F951FC817D90759F488819981840F42
:10457000951F0296918380838A819B819383828396
:104580002115310529F4F0935504E09354043DC0FE
:10459000E901FB83EA8349915991C40FD51FEC17B8
:1045A000FD0761F480819181840F951F0296E901D6
:1045B00099838883828193819B838A83E0E0F0E002
:1045C00012968D919C911397009719F0FD01DC01D3
:1045D000F7CF8D919C9111979D012E5F3F4F820FD8
:1045E000931F20915204309153042817390769F41E
:1045F000309729F4109255041092540402C013828B
:104600001282B0935304A0935204DF91CF91089586
:10461000A0E0B0E0EEE0F3E20C94ED23EC010097B3
:1046200021F4CB010E94E721B4C0FC01E60FF71F83
:104630009C0122503109E217F30708F4A8C0D90100
:104640000D911C91119706171707B0F00530110551
:1046500008F49BC0C80104978617970708F495C013
:1046600002501109061B170B019311936D937C9354
:10467000CF010E947F2289C05B01A01AB10A4C01C0
:10468000800E911EA0915404B0915504612C712CA0
:10469000E12CF12C109709F446C08D919C91119753
:1046A000A815B905B1F56C0142E0C40ED11CCA14BD
:1046B000DB0478F14C018A189B08640142E0C40EC7
:1046C000D11C1296BC9012971396AC91B5E0CB1604
:1046D000D10440F0B282A38391828082D9016D938C
:1046E0007C9309C00E5F1F4F800F911FF9019183CA
:1046F0008083EB2DFA2FE114F10431F0D7011396EA
:10470000FC93EE93129741C0F0935504E093540448
:104710003CC06816790608F43C017D0112960D90A4
:10472000BC91A02DB7CF809152049091530488166C
:104730009906E1F466167706C8F480910601909117
:104740000701009741F48DB79EB740910A0150913F
:104750000B01841B950BE817F907C8F4F093530479
:10476000E0935204F901718360830FC0CB010E9472
:10477000E7217C01009759F0A801BE010E94E023C7
:10478000CE010E947F22C70104C0CE0102C080E09A
:1047900090E0CDB7DEB7EEE00C94092481E090E024
:1047A000F8940C942024FB01DC0104C08D9101904D
:1047B000801921F441505040C8F7881B990B089587
:1047C000FB01DC0102C001900D9241505040D8F72E
:1047D00008952F923F924F925F926F927F928F92A5
:1047E0009F92AF92BF92CF92DF92EF92FF920F9380
:1047F0001F93CF93DF93CDB7DEB7CA1BDB0B0FB68A
:10480000F894DEBF0FBECDBF09942A883988488846
:104810005F846E847D848C849B84AA84B984C884DC
:10482000DF80EE80FD800C811B81AA81B981CE0FD3
:10483000D11D0FB6F894DEBF0FBECDBFED010895B8
:04484000F894FFCF1A
:10484400020296099609000056048000E80300005D
:1048540000002A0A9709C109770AF209D009E40974
:1048640000000000640B370B940B0B0B2F0B1B0B7E
:064874000C0B0D0A000010
:00000001FF
